{
  "_format": "hh-sol-artifact-1",
  "contractName": "CertificateOfLien",
  "sourceName": "contracts/CertificateOfLien.sol",
  "abi": [
    {
      "inputs": [],
      "stateMutability": "nonpayable",
      "type": "constructor"
    },
    {
      "anonymous": false,
      "inputs": [
        {
          "indexed": true,
          "internalType": "address",
          "name": "owner",
          "type": "address"
        },
        {
          "indexed": true,
          "internalType": "address",
          "name": "approved",
          "type": "address"
        },
        {
          "indexed": true,
          "internalType": "uint256",
          "name": "tokenId",
          "type": "uint256"
        }
      ],
      "name": "Approval",
      "type": "event"
    },
    {
      "anonymous": false,
      "inputs": [
        {
          "indexed": true,
          "internalType": "address",
          "name": "owner",
          "type": "address"
        },
        {
          "indexed": true,
          "internalType": "address",
          "name": "operator",
          "type": "address"
        },
        {
          "indexed": false,
          "internalType": "bool",
          "name": "approved",
          "type": "bool"
        }
      ],
      "name": "ApprovalForAll",
      "type": "event"
    },
    {
      "anonymous": false,
      "inputs": [
        {
          "indexed": true,
          "internalType": "uint256",
          "name": "tokenId",
          "type": "uint256"
        },
        {
          "indexed": true,
          "internalType": "address",
          "name": "borrower",
          "type": "address"
        },
        {
          "indexed": true,
          "internalType": "address",
          "name": "lender",
          "type": "address"
        },
        {
          "indexed": false,
          "internalType": "uint256",
          "name": "landPrice",
          "type": "uint256"
        },
        {
          "indexed": false,
          "internalType": "uint256",
          "name": "period",
          "type": "uint256"
        },
        {
          "indexed": false,
          "internalType": "uint256",
          "name": "interestRate",
          "type": "uint256"
        }
      ],
      "name": "LienCreated",
      "type": "event"
    },
    {
      "anonymous": false,
      "inputs": [
        {
          "indexed": true,
          "internalType": "uint256",
          "name": "tokenId",
          "type": "uint256"
        },
        {
          "indexed": true,
          "internalType": "address",
          "name": "previousOwner",
          "type": "address"
        },
        {
          "indexed": true,
          "internalType": "address",
          "name": "newOwner",
          "type": "address"
        }
      ],
      "name": "LienDefaulted",
      "type": "event"
    },
    {
      "anonymous": false,
      "inputs": [
        {
          "indexed": true,
          "internalType": "uint256",
          "name": "tokenId",
          "type": "uint256"
        },
        {
          "indexed": true,
          "internalType": "address",
          "name": "lender",
          "type": "address"
        },
        {
          "indexed": false,
          "internalType": "uint256",
          "name": "amount",
          "type": "uint256"
        }
      ],
      "name": "LoanFunded",
      "type": "event"
    },
    {
      "anonymous": false,
      "inputs": [
        {
          "indexed": true,
          "internalType": "uint256",
          "name": "tokenId",
          "type": "uint256"
        },
        {
          "indexed": true,
          "internalType": "address",
          "name": "borrower",
          "type": "address"
        },
        {
          "indexed": true,
          "internalType": "address",
          "name": "lender",
          "type": "address"
        },
        {
          "indexed": false,
          "internalType": "uint256",
          "name": "amount",
          "type": "uint256"
        }
      ],
      "name": "LoanRepaid",
      "type": "event"
    },
    {
      "anonymous": false,
      "inputs": [
        {
          "indexed": true,
          "internalType": "address",
          "name": "previousOwner",
          "type": "address"
        },
        {
          "indexed": true,
          "internalType": "address",
          "name": "newOwner",
          "type": "address"
        }
      ],
      "name": "OwnershipTransferred",
      "type": "event"
    },
    {
      "anonymous": false,
      "inputs": [
        {
          "indexed": true,
          "internalType": "address",
          "name": "from",
          "type": "address"
        },
        {
          "indexed": true,
          "internalType": "address",
          "name": "to",
          "type": "address"
        },
        {
          "indexed": true,
          "internalType": "uint256",
          "name": "tokenId",
          "type": "uint256"
        }
      ],
      "name": "Transfer",
      "type": "event"
    },
    {
      "inputs": [],
      "name": "INTEREST_RATE_PRECISION",
      "outputs": [
        {
          "internalType": "uint256",
          "name": "",
          "type": "uint256"
        }
      ],
      "stateMutability": "view",
      "type": "function"
    },
    {
      "inputs": [],
      "name": "MAX_INTEREST_RATE",
      "outputs": [
        {
          "internalType": "uint256",
          "name": "",
          "type": "uint256"
        }
      ],
      "stateMutability": "view",
      "type": "function"
    },
    {
      "inputs": [],
      "name": "MAX_LOAN_PERIOD",
      "outputs": [
        {
          "internalType": "uint256",
          "name": "",
          "type": "uint256"
        }
      ],
      "stateMutability": "view",
      "type": "function"
    },
    {
      "inputs": [],
      "name": "MIN_LOAN_PERIOD",
      "outputs": [
        {
          "internalType": "uint256",
          "name": "",
          "type": "uint256"
        }
      ],
      "stateMutability": "view",
      "type": "function"
    },
    {
      "inputs": [
        {
          "internalType": "address",
          "name": "to",
          "type": "address"
        },
        {
          "internalType": "uint256",
          "name": "tokenId",
          "type": "uint256"
        }
      ],
      "name": "approve",
      "outputs": [],
      "stateMutability": "nonpayable",
      "type": "function"
    },
    {
      "inputs": [
        {
          "internalType": "address",
          "name": "owner",
          "type": "address"
        }
      ],
      "name": "balanceOf",
      "outputs": [
        {
          "internalType": "uint256",
          "name": "",
          "type": "uint256"
        }
      ],
      "stateMutability": "view",
      "type": "function"
    },
    {
      "inputs": [
        {
          "internalType": "uint256",
          "name": "tokenId",
          "type": "uint256"
        }
      ],
      "name": "calculateRepaymentAmount",
      "outputs": [
        {
          "internalType": "uint256",
          "name": "",
          "type": "uint256"
        }
      ],
      "stateMutability": "view",
      "type": "function"
    },
    {
      "inputs": [
        {
          "internalType": "uint256",
          "name": "landPrice",
          "type": "uint256"
        },
        {
          "internalType": "uint256",
          "name": "period",
          "type": "uint256"
        },
        {
          "internalType": "uint256",
          "name": "interestRate",
          "type": "uint256"
        },
        {
          "internalType": "uint256",
          "name": "loanAmount",
          "type": "uint256"
        }
      ],
      "name": "createLien",
      "outputs": [
        {
          "internalType": "uint256",
          "name": "",
          "type": "uint256"
        }
      ],
      "stateMutability": "payable",
      "type": "function"
    },
    {
      "inputs": [
        {
          "internalType": "uint256",
          "name": "tokenId",
          "type": "uint256"
        }
      ],
      "name": "getApproved",
      "outputs": [
        {
          "internalType": "address",
          "name": "",
          "type": "address"
        }
      ],
      "stateMutability": "view",
      "type": "function"
    },
    {
      "inputs": [
        {
          "internalType": "uint256",
          "name": "tokenId",
          "type": "uint256"
        }
      ],
      "name": "getLienDetails",
      "outputs": [
        {
          "components": [
            {
              "internalType": "uint256",
              "name": "landPrice",
              "type": "uint256"
            },
            {
              "internalType": "address",
              "name": "borrower",
              "type": "address"
            },
            {
              "internalType": "address",
              "name": "lender",
              "type": "address"
            },
            {
              "internalType": "uint256",
              "name": "period",
              "type": "uint256"
            },
            {
              "internalType": "uint256",
              "name": "interestRate",
              "type": "uint256"
            },
            {
              "internalType": "bool",
              "name": "isActive",
              "type": "bool"
            },
            {
              "internalType": "uint256",
              "name": "creationTime",
              "type": "uint256"
            },
            {
              "internalType": "uint256",
              "name": "collateralAmount",
              "type": "uint256"
            },
            {
              "internalType": "uint256",
              "name": "loanAmount",
              "type": "uint256"
            }
          ],
          "internalType": "struct CertificateOfLien.Lien",
          "name": "",
          "type": "tuple"
        }
      ],
      "stateMutability": "view",
      "type": "function"
    },
    {
      "inputs": [
        {
          "internalType": "uint256",
          "name": "tokenId",
          "type": "uint256"
        }
      ],
      "name": "invest",
      "outputs": [],
      "stateMutability": "payable",
      "type": "function"
    },
    {
      "inputs": [
        {
          "internalType": "address",
          "name": "owner",
          "type": "address"
        },
        {
          "internalType": "address",
          "name": "operator",
          "type": "address"
        }
      ],
      "name": "isApprovedForAll",
      "outputs": [
        {
          "internalType": "bool",
          "name": "",
          "type": "bool"
        }
      ],
      "stateMutability": "view",
      "type": "function"
    },
    {
      "inputs": [
        {
          "internalType": "uint256",
          "name": "",
          "type": "uint256"
        }
      ],
      "name": "liens",
      "outputs": [
        {
          "internalType": "uint256",
          "name": "landPrice",
          "type": "uint256"
        },
        {
          "internalType": "address",
          "name": "borrower",
          "type": "address"
        },
        {
          "internalType": "address",
          "name": "lender",
          "type": "address"
        },
        {
          "internalType": "uint256",
          "name": "period",
          "type": "uint256"
        },
        {
          "internalType": "uint256",
          "name": "interestRate",
          "type": "uint256"
        },
        {
          "internalType": "bool",
          "name": "isActive",
          "type": "bool"
        },
        {
          "internalType": "uint256",
          "name": "creationTime",
          "type": "uint256"
        },
        {
          "internalType": "uint256",
          "name": "collateralAmount",
          "type": "uint256"
        },
        {
          "internalType": "uint256",
          "name": "loanAmount",
          "type": "uint256"
        }
      ],
      "stateMutability": "view",
      "type": "function"
    },
    {
      "inputs": [],
      "name": "name",
      "outputs": [
        {
          "internalType": "string",
          "name": "",
          "type": "string"
        }
      ],
      "stateMutability": "view",
      "type": "function"
    },
    {
      "inputs": [],
      "name": "owner",
      "outputs": [
        {
          "internalType": "address",
          "name": "",
          "type": "address"
        }
      ],
      "stateMutability": "view",
      "type": "function"
    },
    {
      "inputs": [
        {
          "internalType": "uint256",
          "name": "tokenId",
          "type": "uint256"
        }
      ],
      "name": "ownerOf",
      "outputs": [
        {
          "internalType": "address",
          "name": "",
          "type": "address"
        }
      ],
      "stateMutability": "view",
      "type": "function"
    },
    {
      "inputs": [],
      "name": "renounceOwnership",
      "outputs": [],
      "stateMutability": "nonpayable",
      "type": "function"
    },
    {
      "inputs": [
        {
          "internalType": "uint256",
          "name": "tokenId",
          "type": "uint256"
        }
      ],
      "name": "repayLoan",
      "outputs": [],
      "stateMutability": "payable",
      "type": "function"
    },
    {
      "inputs": [
        {
          "internalType": "address",
          "name": "from",
          "type": "address"
        },
        {
          "internalType": "address",
          "name": "to",
          "type": "address"
        },
        {
          "internalType": "uint256",
          "name": "tokenId",
          "type": "uint256"
        }
      ],
      "name": "safeTransferFrom",
      "outputs": [],
      "stateMutability": "nonpayable",
      "type": "function"
    },
    {
      "inputs": [
        {
          "internalType": "address",
          "name": "from",
          "type": "address"
        },
        {
          "internalType": "address",
          "name": "to",
          "type": "address"
        },
        {
          "internalType": "uint256",
          "name": "tokenId",
          "type": "uint256"
        },
        {
          "internalType": "bytes",
          "name": "data",
          "type": "bytes"
        }
      ],
      "name": "safeTransferFrom",
      "outputs": [],
      "stateMutability": "nonpayable",
      "type": "function"
    },
    {
      "inputs": [
        {
          "internalType": "address",
          "name": "operator",
          "type": "address"
        },
        {
          "internalType": "bool",
          "name": "approved",
          "type": "bool"
        }
      ],
      "name": "setApprovalForAll",
      "outputs": [],
      "stateMutability": "nonpayable",
      "type": "function"
    },
    {
      "inputs": [
        {
          "internalType": "bytes4",
          "name": "interfaceId",
          "type": "bytes4"
        }
      ],
      "name": "supportsInterface",
      "outputs": [
        {
          "internalType": "bool",
          "name": "",
          "type": "bool"
        }
      ],
      "stateMutability": "view",
      "type": "function"
    },
    {
      "inputs": [],
      "name": "symbol",
      "outputs": [
        {
          "internalType": "string",
          "name": "",
          "type": "string"
        }
      ],
      "stateMutability": "view",
      "type": "function"
    },
    {
      "inputs": [
        {
          "internalType": "uint256",
          "name": "tokenId",
          "type": "uint256"
        }
      ],
      "name": "tokenURI",
      "outputs": [
        {
          "internalType": "string",
          "name": "",
          "type": "string"
        }
      ],
      "stateMutability": "view",
      "type": "function"
    },
    {
      "inputs": [
        {
          "internalType": "uint256",
          "name": "tokenId",
          "type": "uint256"
        }
      ],
      "name": "transferAfterDefault",
      "outputs": [],
      "stateMutability": "nonpayable",
      "type": "function"
    },
    {
      "inputs": [
        {
          "internalType": "address",
          "name": "from",
          "type": "address"
        },
        {
          "internalType": "address",
          "name": "to",
          "type": "address"
        },
        {
          "internalType": "uint256",
          "name": "tokenId",
          "type": "uint256"
        }
      ],
      "name": "transferFrom",
      "outputs": [],
      "stateMutability": "nonpayable",
      "type": "function"
    },
    {
      "inputs": [
        {
          "internalType": "address",
          "name": "newOwner",
          "type": "address"
        }
      ],
      "name": "transferOwnership",
      "outputs": [],
      "stateMutability": "nonpayable",
      "type": "function"
    },
    {
      "inputs": [],
      "name": "withdrawExcessFunds",
      "outputs": [],
      "stateMutability": "nonpayable",
      "type": "function"
    }
  ],
  "bytecode": "0x60806040523480156200001157600080fd5b506040518060400160405280601181526020017f43657274696669636174654f664c69656e0000000000000000000000000000008152506040518060400160405280600381526020017f434f4c000000000000000000000000000000000000000000000000000000000081525081600090816200008f91906200041a565b508060019081620000a191906200041a565b505050620000c4620000b8620000d260201b60201c565b620000da60201b60201c565b600160078190555062000501565b600033905090565b6000600660009054906101000a900473ffffffffffffffffffffffffffffffffffffffff16905081600660006101000a81548173ffffffffffffffffffffffffffffffffffffffff021916908373ffffffffffffffffffffffffffffffffffffffff1602179055508173ffffffffffffffffffffffffffffffffffffffff168173ffffffffffffffffffffffffffffffffffffffff167f8be0079c531659141344cd1fd0a4f28419497f9722a3daafe3b4186f6b6457e060405160405180910390a35050565b600081519050919050565b7f4e487b7100000000000000000000000000000000000000000000000000000000600052604160045260246000fd5b7f4e487b7100000000000000000000000000000000000000000000000000000000600052602260045260246000fd5b600060028204905060018216806200022257607f821691505b602082108103620002385762000237620001da565b5b50919050565b60008190508160005260206000209050919050565b60006020601f8301049050919050565b600082821b905092915050565b600060088302620002a27fffffffffffffffffffffffffffffffffffffffffffffffffffffffffffffffff8262000263565b620002ae868362000263565b95508019841693508086168417925050509392505050565b6000819050919050565b6000819050919050565b6000620002fb620002f5620002ef84620002c6565b620002d0565b620002c6565b9050919050565b6000819050919050565b6200031783620002da565b6200032f620003268262000302565b84845462000270565b825550505050565b600090565b6200034662000337565b620003538184846200030c565b505050565b5b818110156200037b576200036f6000826200033c565b60018101905062000359565b5050565b601f821115620003ca5762000394816200023e565b6200039f8462000253565b81016020851015620003af578190505b620003c7620003be8562000253565b83018262000358565b50505b505050565b600082821c905092915050565b6000620003ef60001984600802620003cf565b1980831691505092915050565b60006200040a8383620003dc565b9150826002028217905092915050565b6200042582620001a0565b67ffffffffffffffff811115620004415762000440620001ab565b5b6200044d825462000209565b6200045a8282856200037f565b600060209050601f8311600181146200049257600084156200047d578287015190505b620004898582620003fc565b865550620004f9565b601f198416620004a2866200023e565b60005b82811015620004cc57848901518255600182019150602085019450602081019050620004a5565b86831015620004ec5784890151620004e8601f891682620003dc565b8355505b6001600288020188555050505b505050505050565b61474980620005116000396000f3fe6080604052600436106101b75760003560e01c806385a2567f116100ec578063b88d4fde1161008a578063c87b56dd11610064578063c87b56dd14610611578063e985e9c51461064e578063f2fde38b1461068b578063fcb67c5b146106b4576101b7565b8063b88d4fde14610578578063c63f6052146105a1578063c7970a51146105e6576101b7565b8063a22cb465116100c6578063a22cb465146104b9578063ab7b1c89146104e2578063b1197239146104fe578063b85135a71461053b576101b7565b806385a2567f146104335780638da5cb5b1461046357806395d89b411461048e576101b7565b806334855d14116101595780636352211e116101335780636352211e14610379578063686710e7146103b657806370a08231146103df578063715018a61461041c576101b7565b806334855d14146102fa578063375258051461032557806342842e0e14610350576101b7565b8063095ea7b311610195578063095ea7b314610261578063167d64391461028a57806323b872dd146102b55780632afcf480146102de576101b7565b806301ffc9a7146101bc57806306fdde03146101f9578063081812fc14610224575b600080fd5b3480156101c857600080fd5b506101e360048036038101906101de9190612f72565b6106cb565b6040516101f09190612fba565b60405180910390f35b34801561020557600080fd5b5061020e6107ad565b60405161021b9190613065565b60405180910390f35b34801561023057600080fd5b5061024b600480360381019061024691906130bd565b61083f565b604051610258919061312b565b60405180910390f35b34801561026d57600080fd5b5061028860048036038101906102839190613172565b610885565b005b34801561029657600080fd5b5061029f61099c565b6040516102ac91906131c1565b60405180910390f35b3480156102c157600080fd5b506102dc60048036038101906102d791906131dc565b6109a4565b005b6102f860048036038101906102f391906130bd565b610a04565b005b34801561030657600080fd5b5061030f610c9e565b60405161031c91906131c1565b60405180910390f35b34801561033157600080fd5b5061033a610ca4565b60405161034791906131c1565b60405180910390f35b34801561035c57600080fd5b50610377600480360381019061037291906131dc565b610caa565b005b34801561038557600080fd5b506103a0600480360381019061039b91906130bd565b610cca565b6040516103ad919061312b565b60405180910390f35b3480156103c257600080fd5b506103dd60048036038101906103d891906130bd565b610d50565b005b3480156103eb57600080fd5b506104066004803603810190610401919061322f565b61104c565b60405161041391906131c1565b60405180910390f35b34801561042857600080fd5b50610431611103565b005b61044d6004803603810190610448919061325c565b611117565b60405161045a91906131c1565b60405180910390f35b34801561046f57600080fd5b506104786114bb565b604051610485919061312b565b60405180910390f35b34801561049a57600080fd5b506104a36114e5565b6040516104b09190613065565b60405180910390f35b3480156104c557600080fd5b506104e060048036038101906104db91906132ef565b611577565b005b6104fc60048036038101906104f791906130bd565b61158d565b005b34801561050a57600080fd5b50610525600480360381019061052091906130bd565b611992565b60405161053291906131c1565b60405180910390f35b34801561054757600080fd5b50610562600480360381019061055d91906130bd565b611a60565b60405161056f9190613413565b60405180910390f35b34801561058457600080fd5b5061059f600480360381019061059a9190613564565b611bd9565b005b3480156105ad57600080fd5b506105c860048036038101906105c391906130bd565b611c3b565b6040516105dd999897969594939291906135e7565b60405180910390f35b3480156105f257600080fd5b506105fb611cd6565b60405161060891906131c1565b60405180910390f35b34801561061d57600080fd5b50610638600480360381019061063391906130bd565b611cdd565b6040516106459190613065565b60405180910390f35b34801561065a57600080fd5b5061067560048036038101906106709190613674565b611d45565b6040516106829190612fba565b60405180910390f35b34801561069757600080fd5b506106b260048036038101906106ad919061322f565b611dd9565b005b3480156106c057600080fd5b506106c9611e5c565b005b60007f80ac58cd000000000000000000000000000000000000000000000000000000007bffffffffffffffffffffffffffffffffffffffffffffffffffffffff1916827bffffffffffffffffffffffffffffffffffffffffffffffffffffffff1916148061079657507f5b5e139f000000000000000000000000000000000000000000000000000000007bffffffffffffffffffffffffffffffffffffffffffffffffffffffff1916827bffffffffffffffffffffffffffffffffffffffffffffffffffffffff1916145b806107a657506107a582611efd565b5b9050919050565b6060600080546107bc906136e3565b80601f01602080910402602001604051908101604052809291908181526020018280546107e8906136e3565b80156108355780601f1061080a57610100808354040283529160200191610835565b820191906000526020600020905b81548152906001019060200180831161081857829003601f168201915b5050505050905090565b600061084a82611f67565b6004600083815260200190815260200160002060009054906101000a900473ffffffffffffffffffffffffffffffffffffffff169050919050565b600061089082610cca565b90508073ffffffffffffffffffffffffffffffffffffffff168373ffffffffffffffffffffffffffffffffffffffff1603610900576040517f08c379a00000000000000000000000000000000000000000000000000000000081526004016108f790613786565b60405180910390fd5b8073ffffffffffffffffffffffffffffffffffffffff1661091f611fb2565b73ffffffffffffffffffffffffffffffffffffffff16148061094e575061094d81610948611fb2565b611d45565b5b61098d576040517f08c379a000000000000000000000000000000000000000000000000000000000815260040161098490613818565b60405180910390fd5b6109978383611fba565b505050565b6301e1338081565b6109b56109af611fb2565b82612073565b6109f4576040517f08c379a00000000000000000000000000000000000000000000000000000000081526004016109eb906138aa565b60405180910390fd5b6109ff838383612108565b505050565b610a0c612401565b610a1581612450565b610a54576040517f08c379a0000000000000000000000000000000000000000000000000000000008152600401610a4b90613916565b60405180910390fd5b60006008600083815260200190815260200160002090508060050160009054906101000a900460ff16610abc576040517f08c379a0000000000000000000000000000000000000000000000000000000008152600401610ab390613982565b60405180910390fd5b600073ffffffffffffffffffffffffffffffffffffffff168160020160009054906101000a900473ffffffffffffffffffffffffffffffffffffffff1673ffffffffffffffffffffffffffffffffffffffff1614610b4f576040517f08c379a0000000000000000000000000000000000000000000000000000000008152600401610b46906139ee565b60405180910390fd5b80600801543414610b95576040517f08c379a0000000000000000000000000000000000000000000000000000000008152600401610b8c90613a5a565b60405180910390fd5b338160020160006101000a81548173ffffffffffffffffffffffffffffffffffffffff021916908373ffffffffffffffffffffffffffffffffffffffff1602179055508060010160009054906101000a900473ffffffffffffffffffffffffffffffffffffffff1673ffffffffffffffffffffffffffffffffffffffff166108fc349081150290604051600060405180830381858888f19350505050158015610c42573d6000803e3d6000fd5b503373ffffffffffffffffffffffffffffffffffffffff16827fbd7ef6c6281278f6c8ac4ae9ef2f205b52425813c288dd47c377cb6b59c5076e34604051610c8a91906131c1565b60405180910390a350610c9b612491565b50565b61138881565b61271081565b610cc583838360405180602001604052806000815250611bd9565b505050565b600080610cd68361249b565b9050600073ffffffffffffffffffffffffffffffffffffffff168173ffffffffffffffffffffffffffffffffffffffff1603610d47576040517f08c379a0000000000000000000000000000000000000000000000000000000008152600401610d3e90613ac6565b60405180910390fd5b80915050919050565b610d586124d8565b610d60612401565b610d6981612450565b610da8576040517f08c379a0000000000000000000000000000000000000000000000000000000008152600401610d9f90613916565b60405180910390fd5b60006008600083815260200190815260200160002090508060050160009054906101000a900460ff16610e10576040517f08c379a0000000000000000000000000000000000000000000000000000000008152600401610e0790613982565b60405180910390fd5b80600301548160060154610e249190613b15565b4211610e65576040517f08c379a0000000000000000000000000000000000000000000000000000000008152600401610e5c90613b95565b60405180910390fd5b600073ffffffffffffffffffffffffffffffffffffffff168160020160009054906101000a900473ffffffffffffffffffffffffffffffffffffffff1673ffffffffffffffffffffffffffffffffffffffff1603610ef8576040517f08c379a0000000000000000000000000000000000000000000000000000000008152600401610eef90613c01565b60405180910390fd5b6000610f0383610cca565b9050610f34818360020160009054906101000a900473ffffffffffffffffffffffffffffffffffffffff1685612108565b60008260050160006101000a81548160ff0219169083151502179055508160020160009054906101000a900473ffffffffffffffffffffffffffffffffffffffff1673ffffffffffffffffffffffffffffffffffffffff166108fc83600701549081150290604051600060405180830381858888f19350505050158015610fbf573d6000803e3d6000fd5b508160020160009054906101000a900473ffffffffffffffffffffffffffffffffffffffff1673ffffffffffffffffffffffffffffffffffffffff168173ffffffffffffffffffffffffffffffffffffffff16847f3b95cba17b87932db0dd387b4bc90dfd4450812e380b59e606fbad6d6a24b98b60405160405180910390a45050611049612491565b50565b60008073ffffffffffffffffffffffffffffffffffffffff168273ffffffffffffffffffffffffffffffffffffffff16036110bc576040517f08c379a00000000000000000000000000000000000000000000000000000000081526004016110b390613c93565b60405180910390fd5b600360008373ffffffffffffffffffffffffffffffffffffffff1673ffffffffffffffffffffffffffffffffffffffff168152602001908152602001600020549050919050565b61110b6124d8565b6111156000612556565b565b6000611121612401565b60008511611164576040517f08c379a000000000000000000000000000000000000000000000000000000000815260040161115b90613d25565b60405180910390fd5b62015180841015801561117b57506301e133808411155b6111ba576040517f08c379a00000000000000000000000000000000000000000000000000000000081526004016111b190613d91565b60405180910390fd5b6000831180156111cc57506113888311155b61120b576040517f08c379a000000000000000000000000000000000000000000000000000000000815260040161120290613dfd565b60405180910390fd5b600a856112189190613e4c565b34101561125a576040517f08c379a000000000000000000000000000000000000000000000000000000000815260040161125190613eef565b60405180910390fd5b60008211801561126a5750848211155b6112a9576040517f08c379a00000000000000000000000000000000000000000000000000000000081526004016112a090613f5b565b60405180910390fd5b60006112b5600961261c565b90506112c1600961262a565b6112cb3382612640565b6040518061012001604052808781526020013373ffffffffffffffffffffffffffffffffffffffff168152602001600073ffffffffffffffffffffffffffffffffffffffff16815260200186815260200185815260200160011515815260200142815260200134815260200184815250600860008381526020019081526020016000206000820151816000015560208201518160010160006101000a81548173ffffffffffffffffffffffffffffffffffffffff021916908373ffffffffffffffffffffffffffffffffffffffff16021790555060408201518160020160006101000a81548173ffffffffffffffffffffffffffffffffffffffff021916908373ffffffffffffffffffffffffffffffffffffffff160217905550606082015181600301556080820151816004015560a08201518160050160006101000a81548160ff02191690831515021790555060c0820151816006015560e082015181600701556101008201518160080155905050600073ffffffffffffffffffffffffffffffffffffffff163373ffffffffffffffffffffffffffffffffffffffff16827f46791cca9887cbaa7957fb85aa979c19caffd1e1619bd4c929eb4d97c74b075689898960405161149f93929190613f7b565b60405180910390a4809150506114b3612491565b949350505050565b6000600660009054906101000a900473ffffffffffffffffffffffffffffffffffffffff16905090565b6060600180546114f4906136e3565b80601f0160208091040260200160405190810160405280929190818152602001828054611520906136e3565b801561156d5780601f106115425761010080835404028352916020019161156d565b820191906000526020600020905b81548152906001019060200180831161155057829003601f168201915b5050505050905090565b611589611582611fb2565b838361265e565b5050565b611595612401565b61159e81612450565b6115dd576040517f08c379a00000000000000000000000000000000000000000000000000000000081526004016115d490613916565b60405180910390fd5b60006008600083815260200190815260200160002090508060050160009054906101000a900460ff16611645576040517f08c379a000000000000000000000000000000000000000000000000000000000815260040161163c90613982565b60405180910390fd5b8060010160009054906101000a900473ffffffffffffffffffffffffffffffffffffffff1673ffffffffffffffffffffffffffffffffffffffff163373ffffffffffffffffffffffffffffffffffffffff16146116d7576040517f08c379a00000000000000000000000000000000000000000000000000000000081526004016116ce90613ffe565b60405180910390fd5b600073ffffffffffffffffffffffffffffffffffffffff168160020160009054906101000a900473ffffffffffffffffffffffffffffffffffffffff1673ffffffffffffffffffffffffffffffffffffffff160361176a576040517f08c379a000000000000000000000000000000000000000000000000000000000815260040161176190613c01565b60405180910390fd5b600061177583611992565b9050803410156117ba576040517f08c379a00000000000000000000000000000000000000000000000000000000081526004016117b19061406a565b60405180910390fd5b60008260050160006101000a81548160ff0219169083151502179055508160020160009054906101000a900473ffffffffffffffffffffffffffffffffffffffff1673ffffffffffffffffffffffffffffffffffffffff166108fc829081150290604051600060405180830381858888f19350505050158015611841573d6000803e3d6000fd5b50600082600701548234611855919061408a565b61185f9190613b15565b905060008111156118d6578260010160009054906101000a900473ffffffffffffffffffffffffffffffffffffffff1673ffffffffffffffffffffffffffffffffffffffff166108fc829081150290604051600060405180830381858888f193505050501580156118d4573d6000803e3d6000fd5b505b8260020160009054906101000a900473ffffffffffffffffffffffffffffffffffffffff1673ffffffffffffffffffffffffffffffffffffffff168360010160009054906101000a900473ffffffffffffffffffffffffffffffffffffffff1673ffffffffffffffffffffffffffffffffffffffff16857f710e531990ea39fba48230679094c845e457119cedc84798e6f0e1eb2422ac598560405161197c91906131c1565b60405180910390a450505061198f612491565b50565b600061199d82612450565b6119dc576040517f08c379a00000000000000000000000000000000000000000000000000000000081526004016119d390613916565b60405180910390fd5b60006008600084815260200190815260200160002090506000816006015442611a05919061408a565b905060006127106301e13380611a1b91906140be565b8284600401548560080154611a3091906140be565b611a3a91906140be565b611a449190613e4c565b9050808360080154611a569190613b15565b9350505050919050565b611a68612e8c565b611a7182612450565b611ab0576040517f08c379a0000000000000000000000000000000000000000000000000000000008152600401611aa790613916565b60405180910390fd5b6008600083815260200190815260200160002060405180610120016040529081600082015481526020016001820160009054906101000a900473ffffffffffffffffffffffffffffffffffffffff1673ffffffffffffffffffffffffffffffffffffffff1673ffffffffffffffffffffffffffffffffffffffff1681526020016002820160009054906101000a900473ffffffffffffffffffffffffffffffffffffffff1673ffffffffffffffffffffffffffffffffffffffff1673ffffffffffffffffffffffffffffffffffffffff16815260200160038201548152602001600482015481526020016005820160009054906101000a900460ff1615151515815260200160068201548152602001600782015481526020016008820154815250509050919050565b611bea611be4611fb2565b83612073565b611c29576040517f08c379a0000000000000000000000000000000000000000000000000000000008152600401611c20906138aa565b60405180910390fd5b611c35848484846127ca565b50505050565b60086020528060005260406000206000915090508060000154908060010160009054906101000a900473ffffffffffffffffffffffffffffffffffffffff16908060020160009054906101000a900473ffffffffffffffffffffffffffffffffffffffff16908060030154908060040154908060050160009054906101000a900460ff16908060060154908060070154908060080154905089565b6201518081565b6060611ce882611f67565b6000611cf2612826565b90506000815111611d125760405180602001604052806000815250611d3d565b80611d1c8461283d565b604051602001611d2d92919061413c565b6040516020818303038152906040525b915050919050565b6000600560008473ffffffffffffffffffffffffffffffffffffffff1673ffffffffffffffffffffffffffffffffffffffff16815260200190815260200160002060008373ffffffffffffffffffffffffffffffffffffffff1673ffffffffffffffffffffffffffffffffffffffff16815260200190815260200160002060009054906101000a900460ff16905092915050565b611de16124d8565b600073ffffffffffffffffffffffffffffffffffffffff168173ffffffffffffffffffffffffffffffffffffffff1603611e50576040517f08c379a0000000000000000000000000000000000000000000000000000000008152600401611e47906141d2565b60405180910390fd5b611e5981612556565b50565b611e646124d8565b600047905060008111611eac576040517f08c379a0000000000000000000000000000000000000000000000000000000008152600401611ea39061423e565b60405180910390fd5b611eb46114bb565b73ffffffffffffffffffffffffffffffffffffffff166108fc829081150290604051600060405180830381858888f19350505050158015611ef9573d6000803e3d6000fd5b5050565b60007f01ffc9a7000000000000000000000000000000000000000000000000000000007bffffffffffffffffffffffffffffffffffffffffffffffffffffffff1916827bffffffffffffffffffffffffffffffffffffffffffffffffffffffff1916149050919050565b611f7081612450565b611faf576040517f08c379a0000000000000000000000000000000000000000000000000000000008152600401611fa690613ac6565b60405180910390fd5b50565b600033905090565b816004600083815260200190815260200160002060006101000a81548173ffffffffffffffffffffffffffffffffffffffff021916908373ffffffffffffffffffffffffffffffffffffffff160217905550808273ffffffffffffffffffffffffffffffffffffffff1661202d83610cca565b73ffffffffffffffffffffffffffffffffffffffff167f8c5be1e5ebec7d5bd14f71427d1e84f3dd0314c0f7b2291e5b200ac8c7c3b92560405160405180910390a45050565b60008061207f83610cca565b90508073ffffffffffffffffffffffffffffffffffffffff168473ffffffffffffffffffffffffffffffffffffffff1614806120c157506120c08185611d45565b5b806120ff57508373ffffffffffffffffffffffffffffffffffffffff166120e78461083f565b73ffffffffffffffffffffffffffffffffffffffff16145b91505092915050565b8273ffffffffffffffffffffffffffffffffffffffff1661212882610cca565b73ffffffffffffffffffffffffffffffffffffffff161461217e576040517f08c379a0000000000000000000000000000000000000000000000000000000008152600401612175906142d0565b60405180910390fd5b600073ffffffffffffffffffffffffffffffffffffffff168273ffffffffffffffffffffffffffffffffffffffff16036121ed576040517f08c379a00000000000000000000000000000000000000000000000000000000081526004016121e490614362565b60405180910390fd5b6121fa838383600161290b565b8273ffffffffffffffffffffffffffffffffffffffff1661221a82610cca565b73ffffffffffffffffffffffffffffffffffffffff1614612270576040517f08c379a0000000000000000000000000000000000000000000000000000000008152600401612267906142d0565b60405180910390fd5b6004600082815260200190815260200160002060006101000a81549073ffffffffffffffffffffffffffffffffffffffff02191690556001600360008573ffffffffffffffffffffffffffffffffffffffff1673ffffffffffffffffffffffffffffffffffffffff168152602001908152602001600020600082825403925050819055506001600360008473ffffffffffffffffffffffffffffffffffffffff1673ffffffffffffffffffffffffffffffffffffffff16815260200190815260200160002060008282540192505081905550816002600083815260200190815260200160002060006101000a81548173ffffffffffffffffffffffffffffffffffffffff021916908373ffffffffffffffffffffffffffffffffffffffff160217905550808273ffffffffffffffffffffffffffffffffffffffff168473ffffffffffffffffffffffffffffffffffffffff167fddf252ad1be2c89b69c2b068fc378daa952ba7f163c4a11628f55a4df523b3ef60405160405180910390a46123fc8383836001612911565b505050565b600260075403612446576040517f08c379a000000000000000000000000000000000000000000000000000000000815260040161243d906143ce565b60405180910390fd5b6002600781905550565b60008073ffffffffffffffffffffffffffffffffffffffff166124728361249b565b73ffffffffffffffffffffffffffffffffffffffff1614159050919050565b6001600781905550565b60006002600083815260200190815260200160002060009054906101000a900473ffffffffffffffffffffffffffffffffffffffff169050919050565b6124e0611fb2565b73ffffffffffffffffffffffffffffffffffffffff166124fe6114bb565b73ffffffffffffffffffffffffffffffffffffffff1614612554576040517f08c379a000000000000000000000000000000000000000000000000000000000815260040161254b9061443a565b60405180910390fd5b565b6000600660009054906101000a900473ffffffffffffffffffffffffffffffffffffffff16905081600660006101000a81548173ffffffffffffffffffffffffffffffffffffffff021916908373ffffffffffffffffffffffffffffffffffffffff1602179055508173ffffffffffffffffffffffffffffffffffffffff168173ffffffffffffffffffffffffffffffffffffffff167f8be0079c531659141344cd1fd0a4f28419497f9722a3daafe3b4186f6b6457e060405160405180910390a35050565b600081600001549050919050565b6001816000016000828254019250508190555050565b61265a828260405180602001604052806000815250612917565b5050565b8173ffffffffffffffffffffffffffffffffffffffff168373ffffffffffffffffffffffffffffffffffffffff16036126cc576040517f08c379a00000000000000000000000000000000000000000000000000000000081526004016126c3906144a6565b60405180910390fd5b80600560008573ffffffffffffffffffffffffffffffffffffffff1673ffffffffffffffffffffffffffffffffffffffff16815260200190815260200160002060008473ffffffffffffffffffffffffffffffffffffffff1673ffffffffffffffffffffffffffffffffffffffff16815260200190815260200160002060006101000a81548160ff0219169083151502179055508173ffffffffffffffffffffffffffffffffffffffff168373ffffffffffffffffffffffffffffffffffffffff167f17307eab39ab6107e8899845ad3d59bd9653f200f220920489ca2b5937696c31836040516127bd9190612fba565b60405180910390a3505050565b6127d5848484612108565b6127e184848484612972565b612820576040517f08c379a000000000000000000000000000000000000000000000000000000000815260040161281790614538565b60405180910390fd5b50505050565b606060405180602001604052806000815250905090565b60606000600161284c84612af9565b01905060008167ffffffffffffffff81111561286b5761286a613439565b5b6040519080825280601f01601f19166020018201604052801561289d5781602001600182028036833780820191505090505b509050600082602001820190505b600115612900578080600190039150507f3031323334353637383961626364656600000000000000000000000000000000600a86061a8153600a85816128f4576128f3613e1d565b5b049450600085036128ab575b819350505050919050565b50505050565b50505050565b6129218383612c4c565b61292e6000848484612972565b61296d576040517f08c379a000000000000000000000000000000000000000000000000000000000815260040161296490614538565b60405180910390fd5b505050565b60006129938473ffffffffffffffffffffffffffffffffffffffff16612e69565b15612aec578373ffffffffffffffffffffffffffffffffffffffff1663150b7a026129bc611fb2565b8786866040518563ffffffff1660e01b81526004016129de94939291906145ad565b6020604051808303816000875af1925050508015612a1a57506040513d601f19601f82011682018060405250810190612a17919061460e565b60015b612a9c573d8060008114612a4a576040519150601f19603f3d011682016040523d82523d6000602084013e612a4f565b606091505b506000815103612a94576040517f08c379a0000000000000000000000000000000000000000000000000000000008152600401612a8b90614538565b60405180910390fd5b805181602001fd5b63150b7a0260e01b7bffffffffffffffffffffffffffffffffffffffffffffffffffffffff1916817bffffffffffffffffffffffffffffffffffffffffffffffffffffffff191614915050612af1565b600190505b949350505050565b600080600090507a184f03e93ff9f4daa797ed6e38ed64bf6a1f0100000000000000008310612b57577a184f03e93ff9f4daa797ed6e38ed64bf6a1f0100000000000000008381612b4d57612b4c613e1d565b5b0492506040810190505b6d04ee2d6d415b85acef81000000008310612b94576d04ee2d6d415b85acef81000000008381612b8a57612b89613e1d565b5b0492506020810190505b662386f26fc100008310612bc357662386f26fc100008381612bb957612bb8613e1d565b5b0492506010810190505b6305f5e1008310612bec576305f5e1008381612be257612be1613e1d565b5b0492506008810190505b6127108310612c11576127108381612c0757612c06613e1d565b5b0492506004810190505b60648310612c345760648381612c2a57612c29613e1d565b5b0492506002810190505b600a8310612c43576001810190505b80915050919050565b600073ffffffffffffffffffffffffffffffffffffffff168273ffffffffffffffffffffffffffffffffffffffff1603612cbb576040517f08c379a0000000000000000000000000000000000000000000000000000000008152600401612cb290614687565b60405180910390fd5b612cc481612450565b15612d04576040517f08c379a0000000000000000000000000000000000000000000000000000000008152600401612cfb906146f3565b60405180910390fd5b612d1260008383600161290b565b612d1b81612450565b15612d5b576040517f08c379a0000000000000000000000000000000000000000000000000000000008152600401612d52906146f3565b60405180910390fd5b6001600360008473ffffffffffffffffffffffffffffffffffffffff1673ffffffffffffffffffffffffffffffffffffffff16815260200190815260200160002060008282540192505081905550816002600083815260200190815260200160002060006101000a81548173ffffffffffffffffffffffffffffffffffffffff021916908373ffffffffffffffffffffffffffffffffffffffff160217905550808273ffffffffffffffffffffffffffffffffffffffff16600073ffffffffffffffffffffffffffffffffffffffff167fddf252ad1be2c89b69c2b068fc378daa952ba7f163c4a11628f55a4df523b3ef60405160405180910390a4612e65600083836001612911565b5050565b6000808273ffffffffffffffffffffffffffffffffffffffff163b119050919050565b60405180610120016040528060008152602001600073ffffffffffffffffffffffffffffffffffffffff168152602001600073ffffffffffffffffffffffffffffffffffffffff16815260200160008152602001600081526020016000151581526020016000815260200160008152602001600081525090565b6000604051905090565b600080fd5b600080fd5b60007fffffffff0000000000000000000000000000000000000000000000000000000082169050919050565b612f4f81612f1a565b8114612f5a57600080fd5b50565b600081359050612f6c81612f46565b92915050565b600060208284031215612f8857612f87612f10565b5b6000612f9684828501612f5d565b91505092915050565b60008115159050919050565b612fb481612f9f565b82525050565b6000602082019050612fcf6000830184612fab565b92915050565b600081519050919050565b600082825260208201905092915050565b60005b8381101561300f578082015181840152602081019050612ff4565b60008484015250505050565b6000601f19601f8301169050919050565b600061303782612fd5565b6130418185612fe0565b9350613051818560208601612ff1565b61305a8161301b565b840191505092915050565b6000602082019050818103600083015261307f818461302c565b905092915050565b6000819050919050565b61309a81613087565b81146130a557600080fd5b50565b6000813590506130b781613091565b92915050565b6000602082840312156130d3576130d2612f10565b5b60006130e1848285016130a8565b91505092915050565b600073ffffffffffffffffffffffffffffffffffffffff82169050919050565b6000613115826130ea565b9050919050565b6131258161310a565b82525050565b6000602082019050613140600083018461311c565b92915050565b61314f8161310a565b811461315a57600080fd5b50565b60008135905061316c81613146565b92915050565b6000806040838503121561318957613188612f10565b5b60006131978582860161315d565b92505060206131a8858286016130a8565b9150509250929050565b6131bb81613087565b82525050565b60006020820190506131d660008301846131b2565b92915050565b6000806000606084860312156131f5576131f4612f10565b5b60006132038682870161315d565b93505060206132148682870161315d565b9250506040613225868287016130a8565b9150509250925092565b60006020828403121561324557613244612f10565b5b60006132538482850161315d565b91505092915050565b6000806000806080858703121561327657613275612f10565b5b6000613284878288016130a8565b9450506020613295878288016130a8565b93505060406132a6878288016130a8565b92505060606132b7878288016130a8565b91505092959194509250565b6132cc81612f9f565b81146132d757600080fd5b50565b6000813590506132e9816132c3565b92915050565b6000806040838503121561330657613305612f10565b5b60006133148582860161315d565b9250506020613325858286016132da565b9150509250929050565b61333881613087565b82525050565b6133478161310a565b82525050565b61335681612f9f565b82525050565b61012082016000820151613373600085018261332f565b506020820151613386602085018261333e565b506040820151613399604085018261333e565b5060608201516133ac606085018261332f565b5060808201516133bf608085018261332f565b5060a08201516133d260a085018261334d565b5060c08201516133e560c085018261332f565b5060e08201516133f860e085018261332f565b5061010082015161340d61010085018261332f565b50505050565b600061012082019050613429600083018461335c565b92915050565b600080fd5b600080fd5b7f4e487b7100000000000000000000000000000000000000000000000000000000600052604160045260246000fd5b6134718261301b565b810181811067ffffffffffffffff821117156134905761348f613439565b5b80604052505050565b60006134a3612f06565b90506134af8282613468565b919050565b600067ffffffffffffffff8211156134cf576134ce613439565b5b6134d88261301b565b9050602081019050919050565b82818337600083830152505050565b6000613507613502846134b4565b613499565b90508281526020810184848401111561352357613522613434565b5b61352e8482856134e5565b509392505050565b600082601f83011261354b5761354a61342f565b5b813561355b8482602086016134f4565b91505092915050565b6000806000806080858703121561357e5761357d612f10565b5b600061358c8782880161315d565b945050602061359d8782880161315d565b93505060406135ae878288016130a8565b925050606085013567ffffffffffffffff8111156135cf576135ce612f15565b5b6135db87828801613536565b91505092959194509250565b6000610120820190506135fd600083018c6131b2565b61360a602083018b61311c565b613617604083018a61311c565b61362460608301896131b2565b61363160808301886131b2565b61363e60a0830187612fab565b61364b60c08301866131b2565b61365860e08301856131b2565b6136666101008301846131b2565b9a9950505050505050505050565b6000806040838503121561368b5761368a612f10565b5b60006136998582860161315d565b92505060206136aa8582860161315d565b9150509250929050565b7f4e487b7100000000000000000000000000000000000000000000000000000000600052602260045260246000fd5b600060028204905060018216806136fb57607f821691505b60208210810361370e5761370d6136b4565b5b50919050565b7f4552433732313a20617070726f76616c20746f2063757272656e74206f776e6560008201527f7200000000000000000000000000000000000000000000000000000000000000602082015250565b6000613770602183612fe0565b915061377b82613714565b604082019050919050565b6000602082019050818103600083015261379f81613763565b9050919050565b7f4552433732313a20617070726f76652063616c6c6572206973206e6f7420746f60008201527f6b656e206f776e6572206f7220617070726f76656420666f7220616c6c000000602082015250565b6000613802603d83612fe0565b915061380d826137a6565b604082019050919050565b60006020820190508181036000830152613831816137f5565b9050919050565b7f4552433732313a2063616c6c6572206973206e6f7420746f6b656e206f776e6560008201527f72206f7220617070726f76656400000000000000000000000000000000000000602082015250565b6000613894602d83612fe0565b915061389f82613838565b604082019050919050565b600060208201905081810360008301526138c381613887565b9050919050565b7f4c69656e20646f6573206e6f7420657869737400000000000000000000000000600082015250565b6000613900601383612fe0565b915061390b826138ca565b602082019050919050565b6000602082019050818103600083015261392f816138f3565b9050919050565b7f4c69656e206973206e6f74206163746976650000000000000000000000000000600082015250565b600061396c601283612fe0565b915061397782613936565b602082019050919050565b6000602082019050818103600083015261399b8161395f565b9050919050565b7f4c6f616e20616c72656164792066756e64656400000000000000000000000000600082015250565b60006139d8601383612fe0565b91506139e3826139a2565b602082019050919050565b60006020820190508181036000830152613a07816139cb565b9050919050565b7f496e636f7272656374206c6f616e20616d6f756e740000000000000000000000600082015250565b6000613a44601583612fe0565b9150613a4f82613a0e565b602082019050919050565b60006020820190508181036000830152613a7381613a37565b9050919050565b7f4552433732313a20696e76616c696420746f6b656e2049440000000000000000600082015250565b6000613ab0601883612fe0565b9150613abb82613a7a565b602082019050919050565b60006020820190508181036000830152613adf81613aa3565b9050919050565b7f4e487b7100000000000000000000000000000000000000000000000000000000600052601160045260246000fd5b6000613b2082613087565b9150613b2b83613087565b9250828201905080821115613b4357613b42613ae6565b5b92915050565b7f4c6f616e20706572696f64206e6f742065787069726564000000000000000000600082015250565b6000613b7f601783612fe0565b9150613b8a82613b49565b602082019050919050565b60006020820190508181036000830152613bae81613b72565b9050919050565b7f4c6f616e206e6f74207965742066756e64656400000000000000000000000000600082015250565b6000613beb601383612fe0565b9150613bf682613bb5565b602082019050919050565b60006020820190508181036000830152613c1a81613bde565b9050919050565b7f4552433732313a2061646472657373207a65726f206973206e6f74206120766160008201527f6c6964206f776e65720000000000000000000000000000000000000000000000602082015250565b6000613c7d602983612fe0565b9150613c8882613c21565b604082019050919050565b60006020820190508181036000830152613cac81613c70565b9050919050565b7f4c616e64207072696365206d7573742062652067726561746572207468616e2060008201527f3000000000000000000000000000000000000000000000000000000000000000602082015250565b6000613d0f602183612fe0565b9150613d1a82613cb3565b604082019050919050565b60006020820190508181036000830152613d3e81613d02565b9050919050565b7f496e76616c6964206c6f616e20706572696f6400000000000000000000000000600082015250565b6000613d7b601383612fe0565b9150613d8682613d45565b602082019050919050565b60006020820190508181036000830152613daa81613d6e565b9050919050565b7f496e76616c696420696e74657265737420726174650000000000000000000000600082015250565b6000613de7601583612fe0565b9150613df282613db1565b602082019050919050565b60006020820190508181036000830152613e1681613dda565b9050919050565b7f4e487b7100000000000000000000000000000000000000000000000000000000600052601260045260246000fd5b6000613e5782613087565b9150613e6283613087565b925082613e7257613e71613e1d565b5b828204905092915050565b7f436f6c6c61746572616c206d757374206265206174206c65617374203130252060008201527f6f66206c616e6420707269636500000000000000000000000000000000000000602082015250565b6000613ed9602d83612fe0565b9150613ee482613e7d565b604082019050919050565b60006020820190508181036000830152613f0881613ecc565b9050919050565b7f496e76616c6964206c6f616e20616d6f756e7400000000000000000000000000600082015250565b6000613f45601383612fe0565b9150613f5082613f0f565b602082019050919050565b60006020820190508181036000830152613f7481613f38565b9050919050565b6000606082019050613f9060008301866131b2565b613f9d60208301856131b2565b613faa60408301846131b2565b949350505050565b7f4f6e6c7920626f72726f7765722063616e20726570617920746865206c6f616e600082015250565b6000613fe8602083612fe0565b9150613ff382613fb2565b602082019050919050565b6000602082019050818103600083015261401781613fdb565b9050919050565b7f496e73756666696369656e74207061796d656e74000000000000000000000000600082015250565b6000614054601483612fe0565b915061405f8261401e565b602082019050919050565b6000602082019050818103600083015261408381614047565b9050919050565b600061409582613087565b91506140a083613087565b92508282039050818111156140b8576140b7613ae6565b5b92915050565b60006140c982613087565b91506140d483613087565b92508282026140e281613087565b915082820484148315176140f9576140f8613ae6565b5b5092915050565b600081905092915050565b600061411682612fd5565b6141208185614100565b9350614130818560208601612ff1565b80840191505092915050565b6000614148828561410b565b9150614154828461410b565b91508190509392505050565b7f4f776e61626c653a206e6577206f776e657220697320746865207a65726f206160008201527f6464726573730000000000000000000000000000000000000000000000000000602082015250565b60006141bc602683612fe0565b91506141c782614160565b604082019050919050565b600060208201905081810360008301526141eb816141af565b9050919050565b7f4e6f2066756e647320746f207769746864726177000000000000000000000000600082015250565b6000614228601483612fe0565b9150614233826141f2565b602082019050919050565b600060208201905081810360008301526142578161421b565b9050919050565b7f4552433732313a207472616e736665722066726f6d20696e636f72726563742060008201527f6f776e6572000000000000000000000000000000000000000000000000000000602082015250565b60006142ba602583612fe0565b91506142c58261425e565b604082019050919050565b600060208201905081810360008301526142e9816142ad565b9050919050565b7f4552433732313a207472616e7366657220746f20746865207a65726f2061646460008201527f7265737300000000000000000000000000000000000000000000000000000000602082015250565b600061434c602483612fe0565b9150614357826142f0565b604082019050919050565b6000602082019050818103600083015261437b8161433f565b9050919050565b7f5265656e7472616e637947756172643a207265656e7472616e742063616c6c00600082015250565b60006143b8601f83612fe0565b91506143c382614382565b602082019050919050565b600060208201905081810360008301526143e7816143ab565b9050919050565b7f4f776e61626c653a2063616c6c6572206973206e6f7420746865206f776e6572600082015250565b6000614424602083612fe0565b915061442f826143ee565b602082019050919050565b6000602082019050818103600083015261445381614417565b9050919050565b7f4552433732313a20617070726f766520746f2063616c6c657200000000000000600082015250565b6000614490601983612fe0565b915061449b8261445a565b602082019050919050565b600060208201905081810360008301526144bf81614483565b9050919050565b7f4552433732313a207472616e7366657220746f206e6f6e20455243373231526560008201527f63656976657220696d706c656d656e7465720000000000000000000000000000602082015250565b6000614522603283612fe0565b915061452d826144c6565b604082019050919050565b6000602082019050818103600083015261455181614515565b9050919050565b600081519050919050565b600082825260208201905092915050565b600061457f82614558565b6145898185614563565b9350614599818560208601612ff1565b6145a28161301b565b840191505092915050565b60006080820190506145c2600083018761311c565b6145cf602083018661311c565b6145dc60408301856131b2565b81810360608301526145ee8184614574565b905095945050505050565b60008151905061460881612f46565b92915050565b60006020828403121561462457614623612f10565b5b6000614632848285016145f9565b91505092915050565b7f4552433732313a206d696e7420746f20746865207a65726f2061646472657373600082015250565b6000614671602083612fe0565b915061467c8261463b565b602082019050919050565b600060208201905081810360008301526146a081614664565b9050919050565b7f4552433732313a20746f6b656e20616c7265616479206d696e74656400000000600082015250565b60006146dd601c83612fe0565b91506146e8826146a7565b602082019050919050565b6000602082019050818103600083015261470c816146d0565b905091905056fea264697066735822122006755b87bfc7c0c546a504e3a71905df39330f70db194d634ffe6cc531a7653264736f6c63430008180033",
  "linkReferences": {},
  "deployedLinkReferences": {}
}