{
  "_format": "hh-sol-artifact-1",
  "contractName": "CertificateOfLien",
  "sourceName": "contracts/CertificateOfLien.sol",
  "abi": [
    {
      "inputs": [],
      "stateMutability": "nonpayable",
      "type": "constructor"
    },
    {
      "anonymous": false,
      "inputs": [
        {
          "indexed": true,
          "internalType": "address",
          "name": "owner",
          "type": "address"
        },
        {
          "indexed": true,
          "internalType": "address",
          "name": "approved",
          "type": "address"
        },
        {
          "indexed": true,
          "internalType": "uint256",
          "name": "tokenId",
          "type": "uint256"
        }
      ],
      "name": "Approval",
      "type": "event"
    },
    {
      "anonymous": false,
      "inputs": [
        {
          "indexed": true,
          "internalType": "address",
          "name": "owner",
          "type": "address"
        },
        {
          "indexed": true,
          "internalType": "address",
          "name": "operator",
          "type": "address"
        },
        {
          "indexed": false,
          "internalType": "bool",
          "name": "approved",
          "type": "bool"
        }
      ],
      "name": "ApprovalForAll",
      "type": "event"
    },
    {
      "anonymous": false,
      "inputs": [
        {
          "indexed": true,
          "internalType": "uint256",
          "name": "tokenId",
          "type": "uint256"
        },
        {
          "indexed": true,
          "internalType": "address",
          "name": "borrower",
          "type": "address"
        },
        {
          "indexed": false,
          "internalType": "uint256",
          "name": "landPrice",
          "type": "uint256"
        },
        {
          "indexed": false,
          "internalType": "uint256",
          "name": "period",
          "type": "uint256"
        },
        {
          "indexed": false,
          "internalType": "uint256",
          "name": "interestRate",
          "type": "uint256"
        }
      ],
      "name": "LienCreated",
      "type": "event"
    },
    {
      "anonymous": false,
      "inputs": [
        {
          "indexed": true,
          "internalType": "uint256",
          "name": "tokenId",
          "type": "uint256"
        },
        {
          "indexed": true,
          "internalType": "address",
          "name": "previousOwner",
          "type": "address"
        },
        {
          "indexed": true,
          "internalType": "address",
          "name": "newOwner",
          "type": "address"
        }
      ],
      "name": "LienDefaulted",
      "type": "event"
    },
    {
      "anonymous": false,
      "inputs": [
        {
          "indexed": true,
          "internalType": "uint256",
          "name": "tokenId",
          "type": "uint256"
        },
        {
          "indexed": true,
          "internalType": "address",
          "name": "borrower",
          "type": "address"
        },
        {
          "indexed": false,
          "internalType": "uint256",
          "name": "amount",
          "type": "uint256"
        }
      ],
      "name": "LoanRepaid",
      "type": "event"
    },
    {
      "anonymous": false,
      "inputs": [
        {
          "indexed": true,
          "internalType": "address",
          "name": "previousOwner",
          "type": "address"
        },
        {
          "indexed": true,
          "internalType": "address",
          "name": "newOwner",
          "type": "address"
        }
      ],
      "name": "OwnershipTransferred",
      "type": "event"
    },
    {
      "anonymous": false,
      "inputs": [
        {
          "indexed": true,
          "internalType": "address",
          "name": "from",
          "type": "address"
        },
        {
          "indexed": true,
          "internalType": "address",
          "name": "to",
          "type": "address"
        },
        {
          "indexed": true,
          "internalType": "uint256",
          "name": "tokenId",
          "type": "uint256"
        }
      ],
      "name": "Transfer",
      "type": "event"
    },
    {
      "inputs": [],
      "name": "INTEREST_RATE_PRECISION",
      "outputs": [
        {
          "internalType": "uint256",
          "name": "",
          "type": "uint256"
        }
      ],
      "stateMutability": "view",
      "type": "function"
    },
    {
      "inputs": [],
      "name": "MAX_INTEREST_RATE",
      "outputs": [
        {
          "internalType": "uint256",
          "name": "",
          "type": "uint256"
        }
      ],
      "stateMutability": "view",
      "type": "function"
    },
    {
      "inputs": [],
      "name": "MAX_LOAN_PERIOD",
      "outputs": [
        {
          "internalType": "uint256",
          "name": "",
          "type": "uint256"
        }
      ],
      "stateMutability": "view",
      "type": "function"
    },
    {
      "inputs": [],
      "name": "MIN_LOAN_PERIOD",
      "outputs": [
        {
          "internalType": "uint256",
          "name": "",
          "type": "uint256"
        }
      ],
      "stateMutability": "view",
      "type": "function"
    },
    {
      "inputs": [
        {
          "internalType": "address",
          "name": "to",
          "type": "address"
        },
        {
          "internalType": "uint256",
          "name": "tokenId",
          "type": "uint256"
        }
      ],
      "name": "approve",
      "outputs": [],
      "stateMutability": "nonpayable",
      "type": "function"
    },
    {
      "inputs": [
        {
          "internalType": "address",
          "name": "owner",
          "type": "address"
        }
      ],
      "name": "balanceOf",
      "outputs": [
        {
          "internalType": "uint256",
          "name": "",
          "type": "uint256"
        }
      ],
      "stateMutability": "view",
      "type": "function"
    },
    {
      "inputs": [
        {
          "internalType": "uint256",
          "name": "tokenId",
          "type": "uint256"
        }
      ],
      "name": "calculateRepaymentAmount",
      "outputs": [
        {
          "internalType": "uint256",
          "name": "",
          "type": "uint256"
        }
      ],
      "stateMutability": "view",
      "type": "function"
    },
    {
      "inputs": [
        {
          "internalType": "uint256",
          "name": "landPrice",
          "type": "uint256"
        },
        {
          "internalType": "uint256",
          "name": "period",
          "type": "uint256"
        },
        {
          "internalType": "uint256",
          "name": "interestRate",
          "type": "uint256"
        }
      ],
      "name": "createLien",
      "outputs": [
        {
          "internalType": "uint256",
          "name": "",
          "type": "uint256"
        }
      ],
      "stateMutability": "payable",
      "type": "function"
    },
    {
      "inputs": [
        {
          "internalType": "uint256",
          "name": "tokenId",
          "type": "uint256"
        }
      ],
      "name": "getApproved",
      "outputs": [
        {
          "internalType": "address",
          "name": "",
          "type": "address"
        }
      ],
      "stateMutability": "view",
      "type": "function"
    },
    {
      "inputs": [
        {
          "internalType": "uint256",
          "name": "tokenId",
          "type": "uint256"
        }
      ],
      "name": "getLienDetails",
      "outputs": [
        {
          "components": [
            {
              "internalType": "uint256",
              "name": "landPrice",
              "type": "uint256"
            },
            {
              "internalType": "address",
              "name": "borrower",
              "type": "address"
            },
            {
              "internalType": "uint256",
              "name": "period",
              "type": "uint256"
            },
            {
              "internalType": "uint256",
              "name": "interestRate",
              "type": "uint256"
            },
            {
              "internalType": "bool",
              "name": "isActive",
              "type": "bool"
            },
            {
              "internalType": "uint256",
              "name": "creationTime",
              "type": "uint256"
            },
            {
              "internalType": "uint256",
              "name": "collateralAmount",
              "type": "uint256"
            }
          ],
          "internalType": "struct CertificateOfLien.Lien",
          "name": "",
          "type": "tuple"
        }
      ],
      "stateMutability": "view",
      "type": "function"
    },
    {
      "inputs": [
        {
          "internalType": "address",
          "name": "owner",
          "type": "address"
        },
        {
          "internalType": "address",
          "name": "operator",
          "type": "address"
        }
      ],
      "name": "isApprovedForAll",
      "outputs": [
        {
          "internalType": "bool",
          "name": "",
          "type": "bool"
        }
      ],
      "stateMutability": "view",
      "type": "function"
    },
    {
      "inputs": [
        {
          "internalType": "uint256",
          "name": "",
          "type": "uint256"
        }
      ],
      "name": "liens",
      "outputs": [
        {
          "internalType": "uint256",
          "name": "landPrice",
          "type": "uint256"
        },
        {
          "internalType": "address",
          "name": "borrower",
          "type": "address"
        },
        {
          "internalType": "uint256",
          "name": "period",
          "type": "uint256"
        },
        {
          "internalType": "uint256",
          "name": "interestRate",
          "type": "uint256"
        },
        {
          "internalType": "bool",
          "name": "isActive",
          "type": "bool"
        },
        {
          "internalType": "uint256",
          "name": "creationTime",
          "type": "uint256"
        },
        {
          "internalType": "uint256",
          "name": "collateralAmount",
          "type": "uint256"
        }
      ],
      "stateMutability": "view",
      "type": "function"
    },
    {
      "inputs": [],
      "name": "name",
      "outputs": [
        {
          "internalType": "string",
          "name": "",
          "type": "string"
        }
      ],
      "stateMutability": "view",
      "type": "function"
    },
    {
      "inputs": [],
      "name": "owner",
      "outputs": [
        {
          "internalType": "address",
          "name": "",
          "type": "address"
        }
      ],
      "stateMutability": "view",
      "type": "function"
    },
    {
      "inputs": [
        {
          "internalType": "uint256",
          "name": "tokenId",
          "type": "uint256"
        }
      ],
      "name": "ownerOf",
      "outputs": [
        {
          "internalType": "address",
          "name": "",
          "type": "address"
        }
      ],
      "stateMutability": "view",
      "type": "function"
    },
    {
      "inputs": [],
      "name": "renounceOwnership",
      "outputs": [],
      "stateMutability": "nonpayable",
      "type": "function"
    },
    {
      "inputs": [
        {
          "internalType": "uint256",
          "name": "tokenId",
          "type": "uint256"
        }
      ],
      "name": "repayLoan",
      "outputs": [],
      "stateMutability": "payable",
      "type": "function"
    },
    {
      "inputs": [
        {
          "internalType": "address",
          "name": "from",
          "type": "address"
        },
        {
          "internalType": "address",
          "name": "to",
          "type": "address"
        },
        {
          "internalType": "uint256",
          "name": "tokenId",
          "type": "uint256"
        }
      ],
      "name": "safeTransferFrom",
      "outputs": [],
      "stateMutability": "nonpayable",
      "type": "function"
    },
    {
      "inputs": [
        {
          "internalType": "address",
          "name": "from",
          "type": "address"
        },
        {
          "internalType": "address",
          "name": "to",
          "type": "address"
        },
        {
          "internalType": "uint256",
          "name": "tokenId",
          "type": "uint256"
        },
        {
          "internalType": "bytes",
          "name": "data",
          "type": "bytes"
        }
      ],
      "name": "safeTransferFrom",
      "outputs": [],
      "stateMutability": "nonpayable",
      "type": "function"
    },
    {
      "inputs": [
        {
          "internalType": "address",
          "name": "operator",
          "type": "address"
        },
        {
          "internalType": "bool",
          "name": "approved",
          "type": "bool"
        }
      ],
      "name": "setApprovalForAll",
      "outputs": [],
      "stateMutability": "nonpayable",
      "type": "function"
    },
    {
      "inputs": [
        {
          "internalType": "bytes4",
          "name": "interfaceId",
          "type": "bytes4"
        }
      ],
      "name": "supportsInterface",
      "outputs": [
        {
          "internalType": "bool",
          "name": "",
          "type": "bool"
        }
      ],
      "stateMutability": "view",
      "type": "function"
    },
    {
      "inputs": [],
      "name": "symbol",
      "outputs": [
        {
          "internalType": "string",
          "name": "",
          "type": "string"
        }
      ],
      "stateMutability": "view",
      "type": "function"
    },
    {
      "inputs": [
        {
          "internalType": "uint256",
          "name": "tokenId",
          "type": "uint256"
        }
      ],
      "name": "tokenURI",
      "outputs": [
        {
          "internalType": "string",
          "name": "",
          "type": "string"
        }
      ],
      "stateMutability": "view",
      "type": "function"
    },
    {
      "inputs": [
        {
          "internalType": "uint256",
          "name": "tokenId",
          "type": "uint256"
        }
      ],
      "name": "transferAfterDefault",
      "outputs": [],
      "stateMutability": "nonpayable",
      "type": "function"
    },
    {
      "inputs": [
        {
          "internalType": "address",
          "name": "from",
          "type": "address"
        },
        {
          "internalType": "address",
          "name": "to",
          "type": "address"
        },
        {
          "internalType": "uint256",
          "name": "tokenId",
          "type": "uint256"
        }
      ],
      "name": "transferFrom",
      "outputs": [],
      "stateMutability": "nonpayable",
      "type": "function"
    },
    {
      "inputs": [
        {
          "internalType": "address",
          "name": "newOwner",
          "type": "address"
        }
      ],
      "name": "transferOwnership",
      "outputs": [],
      "stateMutability": "nonpayable",
      "type": "function"
    },
    {
      "inputs": [],
      "name": "withdrawExcessFunds",
      "outputs": [],
      "stateMutability": "nonpayable",
      "type": "function"
    }
  ],
  "bytecode": "0x60806040523480156200001157600080fd5b506040518060400160405280601181526020017f43657274696669636174654f664c69656e0000000000000000000000000000008152506040518060400160405280600381526020017f434f4c000000000000000000000000000000000000000000000000000000000081525081600090816200008f91906200041a565b508060019081620000a191906200041a565b505050620000c4620000b8620000d260201b60201c565b620000da60201b60201c565b600160078190555062000501565b600033905090565b6000600660009054906101000a900473ffffffffffffffffffffffffffffffffffffffff16905081600660006101000a81548173ffffffffffffffffffffffffffffffffffffffff021916908373ffffffffffffffffffffffffffffffffffffffff1602179055508173ffffffffffffffffffffffffffffffffffffffff168173ffffffffffffffffffffffffffffffffffffffff167f8be0079c531659141344cd1fd0a4f28419497f9722a3daafe3b4186f6b6457e060405160405180910390a35050565b600081519050919050565b7f4e487b7100000000000000000000000000000000000000000000000000000000600052604160045260246000fd5b7f4e487b7100000000000000000000000000000000000000000000000000000000600052602260045260246000fd5b600060028204905060018216806200022257607f821691505b602082108103620002385762000237620001da565b5b50919050565b60008190508160005260206000209050919050565b60006020601f8301049050919050565b600082821b905092915050565b600060088302620002a27fffffffffffffffffffffffffffffffffffffffffffffffffffffffffffffffff8262000263565b620002ae868362000263565b95508019841693508086168417925050509392505050565b6000819050919050565b6000819050919050565b6000620002fb620002f5620002ef84620002c6565b620002d0565b620002c6565b9050919050565b6000819050919050565b6200031783620002da565b6200032f620003268262000302565b84845462000270565b825550505050565b600090565b6200034662000337565b620003538184846200030c565b505050565b5b818110156200037b576200036f6000826200033c565b60018101905062000359565b5050565b601f821115620003ca5762000394816200023e565b6200039f8462000253565b81016020851015620003af578190505b620003c7620003be8562000253565b83018262000358565b50505b505050565b600082821c905092915050565b6000620003ef60001984600802620003cf565b1980831691505092915050565b60006200040a8383620003dc565b9150826002028217905092915050565b6200042582620001a0565b67ffffffffffffffff811115620004415762000440620001ab565b5b6200044d825462000209565b6200045a8282856200037f565b600060209050601f8311600181146200049257600084156200047d578287015190505b620004898582620003fc565b865550620004f9565b601f198416620004a2866200023e565b60005b82811015620004cc57848901518255600182019150602085019450602081019050620004a5565b86831015620004ec5784890151620004e8601f891682620003dc565b8355505b6001600288020188555050505b505050505050565b613f0680620005116000396000f3fe60806040526004361061019c5760003560e01c8063715018a6116100ec578063b88d4fde1161008a578063c87b56dd11610064578063c87b56dd146105d8578063e985e9c514610615578063f2fde38b14610652578063fcb67c5b1461067b5761019c565b8063b88d4fde14610541578063c63f60521461056a578063c7970a51146105ad5761019c565b8063a22cb465116100c6578063a22cb46514610482578063ab7b1c89146104ab578063b1197239146104c7578063b85135a7146105045761019c565b8063715018a6146104155780638da5cb5b1461042c57806395d89b41146104575761019c565b806334855d14116101595780634e3357c4116101335780634e3357c4146103425780636352211e14610372578063686710e7146103af57806370a08231146103d85761019c565b806334855d14146102c357806337525805146102ee57806342842e0e146103195761019c565b806301ffc9a7146101a157806306fdde03146101de578063081812fc14610209578063095ea7b314610246578063167d64391461026f57806323b872dd1461029a575b600080fd5b3480156101ad57600080fd5b506101c860048036038101906101c3919061293b565b610692565b6040516101d59190612983565b60405180910390f35b3480156101ea57600080fd5b506101f3610774565b6040516102009190612a2e565b60405180910390f35b34801561021557600080fd5b50610230600480360381019061022b9190612a86565b610806565b60405161023d9190612af4565b60405180910390f35b34801561025257600080fd5b5061026d60048036038101906102689190612b3b565b61084c565b005b34801561027b57600080fd5b50610284610963565b6040516102919190612b8a565b60405180910390f35b3480156102a657600080fd5b506102c160048036038101906102bc9190612ba5565b61096b565b005b3480156102cf57600080fd5b506102d86109cb565b6040516102e59190612b8a565b60405180910390f35b3480156102fa57600080fd5b506103036109d1565b6040516103109190612b8a565b60405180910390f35b34801561032557600080fd5b50610340600480360381019061033b9190612ba5565b6109d7565b005b61035c60048036038101906103579190612bf8565b6109f7565b6040516103699190612b8a565b60405180910390f35b34801561037e57600080fd5b5061039960048036038101906103949190612a86565b610cbd565b6040516103a69190612af4565b60405180910390f35b3480156103bb57600080fd5b506103d660048036038101906103d19190612a86565b610d43565b005b3480156103e457600080fd5b506103ff60048036038101906103fa9190612c4b565b610f55565b60405161040c9190612b8a565b60405180910390f35b34801561042157600080fd5b5061042a61100c565b005b34801561043857600080fd5b50610441611020565b60405161044e9190612af4565b60405180910390f35b34801561046357600080fd5b5061046c61104a565b6040516104799190612a2e565b60405180910390f35b34801561048e57600080fd5b506104a960048036038101906104a49190612ca4565b6110dc565b005b6104c560048036038101906104c09190612a86565b6110f2565b005b3480156104d357600080fd5b506104ee60048036038101906104e99190612a86565b61140d565b6040516104fb9190612b8a565b60405180910390f35b34801561051057600080fd5b5061052b60048036038101906105269190612a86565b6114db565b6040516105389190612d9f565b60405180910390f35b34801561054d57600080fd5b5061056860048036038101906105639190612eef565b6115f3565b005b34801561057657600080fd5b50610591600480360381019061058c9190612a86565b611655565b6040516105a49796959493929190612f72565b60405180910390f35b3480156105b957600080fd5b506105c26116c4565b6040516105cf9190612b8a565b60405180910390f35b3480156105e457600080fd5b506105ff60048036038101906105fa9190612a86565b6116cb565b60405161060c9190612a2e565b60405180910390f35b34801561062157600080fd5b5061063c60048036038101906106379190612fe1565b611733565b6040516106499190612983565b60405180910390f35b34801561065e57600080fd5b5061067960048036038101906106749190612c4b565b6117c7565b005b34801561068757600080fd5b5061069061184a565b005b60007f80ac58cd000000000000000000000000000000000000000000000000000000007bffffffffffffffffffffffffffffffffffffffffffffffffffffffff1916827bffffffffffffffffffffffffffffffffffffffffffffffffffffffff1916148061075d57507f5b5e139f000000000000000000000000000000000000000000000000000000007bffffffffffffffffffffffffffffffffffffffffffffffffffffffff1916827bffffffffffffffffffffffffffffffffffffffffffffffffffffffff1916145b8061076d575061076c826118eb565b5b9050919050565b60606000805461078390613050565b80601f01602080910402602001604051908101604052809291908181526020018280546107af90613050565b80156107fc5780601f106107d1576101008083540402835291602001916107fc565b820191906000526020600020905b8154815290600101906020018083116107df57829003601f168201915b5050505050905090565b600061081182611955565b6004600083815260200190815260200160002060009054906101000a900473ffffffffffffffffffffffffffffffffffffffff169050919050565b600061085782610cbd565b90508073ffffffffffffffffffffffffffffffffffffffff168373ffffffffffffffffffffffffffffffffffffffff16036108c7576040517f08c379a00000000000000000000000000000000000000000000000000000000081526004016108be906130f3565b60405180910390fd5b8073ffffffffffffffffffffffffffffffffffffffff166108e66119a0565b73ffffffffffffffffffffffffffffffffffffffff16148061091557506109148161090f6119a0565b611733565b5b610954576040517f08c379a000000000000000000000000000000000000000000000000000000000815260040161094b90613185565b60405180910390fd5b61095e83836119a8565b505050565b6301e1338081565b61097c6109766119a0565b82611a61565b6109bb576040517f08c379a00000000000000000000000000000000000000000000000000000000081526004016109b290613217565b60405180910390fd5b6109c6838383611af6565b505050565b61138881565b61271081565b6109f2838383604051806020016040528060008152506115f3565b505050565b6000610a01611def565b60008411610a44576040517f08c379a0000000000000000000000000000000000000000000000000000000008152600401610a3b906132a9565b60405180910390fd5b620151808310158015610a5b57506301e133808311155b610a9a576040517f08c379a0000000000000000000000000000000000000000000000000000000008152600401610a9190613315565b60405180910390fd5b600082118015610aac57506113888211155b610aeb576040517f08c379a0000000000000000000000000000000000000000000000000000000008152600401610ae290613381565b60405180910390fd5b600a84610af891906133ff565b341015610b3a576040517f08c379a0000000000000000000000000000000000000000000000000000000008152600401610b31906134a2565b60405180910390fd5b6000610b466009611e3e565b9050610b526009611e4c565b610b5c3382611e62565b6040518060e001604052808681526020013373ffffffffffffffffffffffffffffffffffffffff16815260200185815260200184815260200160011515815260200142815260200134815250600860008381526020019081526020016000206000820151816000015560208201518160010160006101000a81548173ffffffffffffffffffffffffffffffffffffffff021916908373ffffffffffffffffffffffffffffffffffffffff160217905550604082015181600201556060820151816003015560808201518160040160006101000a81548160ff02191690831515021790555060a0820151816005015560c082015181600601559050503373ffffffffffffffffffffffffffffffffffffffff16817f9a7a4afef7aeb1255827dc03ef1a7a70a7934cce5de4bfd8daca24e45194d64b878787604051610ca2939291906134c2565b60405180910390a380915050610cb6611e80565b9392505050565b600080610cc983611e8a565b9050600073ffffffffffffffffffffffffffffffffffffffff168173ffffffffffffffffffffffffffffffffffffffff1603610d3a576040517f08c379a0000000000000000000000000000000000000000000000000000000008152600401610d3190613545565b60405180910390fd5b80915050919050565b610d4b611ec7565b610d53611def565b610d5c81611f45565b610d9b576040517f08c379a0000000000000000000000000000000000000000000000000000000008152600401610d92906135b1565b60405180910390fd5b60006008600083815260200190815260200160002090508060040160009054906101000a900460ff16610e03576040517f08c379a0000000000000000000000000000000000000000000000000000000008152600401610dfa9061361d565b60405180910390fd5b80600201548160050154610e17919061363d565b4211610e58576040517f08c379a0000000000000000000000000000000000000000000000000000000008152600401610e4f906136bd565b60405180910390fd5b6000610e6383610cbd565b9050610e7781610e71611020565b85611af6565b60008260040160006101000a81548160ff021916908315150217905550610e9c611020565b73ffffffffffffffffffffffffffffffffffffffff166108fc83600601549081150290604051600060405180830381858888f19350505050158015610ee5573d6000803e3d6000fd5b50610eee611020565b73ffffffffffffffffffffffffffffffffffffffff168173ffffffffffffffffffffffffffffffffffffffff16847f3b95cba17b87932db0dd387b4bc90dfd4450812e380b59e606fbad6d6a24b98b60405160405180910390a45050610f52611e80565b50565b60008073ffffffffffffffffffffffffffffffffffffffff168273ffffffffffffffffffffffffffffffffffffffff1603610fc5576040517f08c379a0000000000000000000000000000000000000000000000000000000008152600401610fbc9061374f565b60405180910390fd5b600360008373ffffffffffffffffffffffffffffffffffffffff1673ffffffffffffffffffffffffffffffffffffffff168152602001908152602001600020549050919050565b611014611ec7565b61101e6000611f86565b565b6000600660009054906101000a900473ffffffffffffffffffffffffffffffffffffffff16905090565b60606001805461105990613050565b80601f016020809104026020016040519081016040528092919081815260200182805461108590613050565b80156110d25780601f106110a7576101008083540402835291602001916110d2565b820191906000526020600020905b8154815290600101906020018083116110b557829003601f168201915b5050505050905090565b6110ee6110e76119a0565b838361204c565b5050565b6110fa611def565b61110381611f45565b611142576040517f08c379a0000000000000000000000000000000000000000000000000000000008152600401611139906135b1565b60405180910390fd5b60006008600083815260200190815260200160002090508060040160009054906101000a900460ff166111aa576040517f08c379a00000000000000000000000000000000000000000000000000000000081526004016111a19061361d565b60405180910390fd5b8060010160009054906101000a900473ffffffffffffffffffffffffffffffffffffffff1673ffffffffffffffffffffffffffffffffffffffff163373ffffffffffffffffffffffffffffffffffffffff161461123c576040517f08c379a0000000000000000000000000000000000000000000000000000000008152600401611233906137bb565b60405180910390fd5b60006112478361140d565b90508034101561128c576040517f08c379a000000000000000000000000000000000000000000000000000000000815260040161128390613827565b60405180910390fd5b60008260040160006101000a81548160ff0219169083151502179055506112b283610cbd565b73ffffffffffffffffffffffffffffffffffffffff166108fc829081150290604051600060405180830381858888f193505050501580156112f7573d6000803e3d6000fd5b5060008260060154823461130b9190613847565b611315919061363d565b9050600081111561138c578260010160009054906101000a900473ffffffffffffffffffffffffffffffffffffffff1673ffffffffffffffffffffffffffffffffffffffff166108fc829081150290604051600060405180830381858888f1935050505015801561138a573d6000803e3d6000fd5b505b8260010160009054906101000a900473ffffffffffffffffffffffffffffffffffffffff1673ffffffffffffffffffffffffffffffffffffffff16847f512d3e65b3e58c2187bb1872aa435dba5bd09c1c03823ba56ab70aac411e4a21846040516113f79190612b8a565b60405180910390a350505061140a611e80565b50565b600061141882611f45565b611457576040517f08c379a000000000000000000000000000000000000000000000000000000000815260040161144e906135b1565b60405180910390fd5b600060086000848152602001908152602001600020905060008160050154426114809190613847565b905060006127106301e13380611496919061387b565b82846003015485600001546114ab919061387b565b6114b5919061387b565b6114bf91906133ff565b90508083600001546114d1919061363d565b9350505050919050565b6114e361287a565b6114ec82611f45565b61152b576040517f08c379a0000000000000000000000000000000000000000000000000000000008152600401611522906135b1565b60405180910390fd5b600860008381526020019081526020016000206040518060e0016040529081600082015481526020016001820160009054906101000a900473ffffffffffffffffffffffffffffffffffffffff1673ffffffffffffffffffffffffffffffffffffffff1673ffffffffffffffffffffffffffffffffffffffff16815260200160028201548152602001600382015481526020016004820160009054906101000a900460ff16151515158152602001600582015481526020016006820154815250509050919050565b6116046115fe6119a0565b83611a61565b611643576040517f08c379a000000000000000000000000000000000000000000000000000000000815260040161163a90613217565b60405180910390fd5b61164f848484846121b8565b50505050565b60086020528060005260406000206000915090508060000154908060010160009054906101000a900473ffffffffffffffffffffffffffffffffffffffff16908060020154908060030154908060040160009054906101000a900460ff16908060050154908060060154905087565b6201518081565b60606116d682611955565b60006116e0612214565b90506000815111611700576040518060200160405280600081525061172b565b8061170a8461222b565b60405160200161171b9291906138f9565b6040516020818303038152906040525b915050919050565b6000600560008473ffffffffffffffffffffffffffffffffffffffff1673ffffffffffffffffffffffffffffffffffffffff16815260200190815260200160002060008373ffffffffffffffffffffffffffffffffffffffff1673ffffffffffffffffffffffffffffffffffffffff16815260200190815260200160002060009054906101000a900460ff16905092915050565b6117cf611ec7565b600073ffffffffffffffffffffffffffffffffffffffff168173ffffffffffffffffffffffffffffffffffffffff160361183e576040517f08c379a00000000000000000000000000000000000000000000000000000000081526004016118359061398f565b60405180910390fd5b61184781611f86565b50565b611852611ec7565b60004790506000811161189a576040517f08c379a0000000000000000000000000000000000000000000000000000000008152600401611891906139fb565b60405180910390fd5b6118a2611020565b73ffffffffffffffffffffffffffffffffffffffff166108fc829081150290604051600060405180830381858888f193505050501580156118e7573d6000803e3d6000fd5b5050565b60007f01ffc9a7000000000000000000000000000000000000000000000000000000007bffffffffffffffffffffffffffffffffffffffffffffffffffffffff1916827bffffffffffffffffffffffffffffffffffffffffffffffffffffffff1916149050919050565b61195e81611f45565b61199d576040517f08c379a000000000000000000000000000000000000000000000000000000000815260040161199490613545565b60405180910390fd5b50565b600033905090565b816004600083815260200190815260200160002060006101000a81548173ffffffffffffffffffffffffffffffffffffffff021916908373ffffffffffffffffffffffffffffffffffffffff160217905550808273ffffffffffffffffffffffffffffffffffffffff16611a1b83610cbd565b73ffffffffffffffffffffffffffffffffffffffff167f8c5be1e5ebec7d5bd14f71427d1e84f3dd0314c0f7b2291e5b200ac8c7c3b92560405160405180910390a45050565b600080611a6d83610cbd565b90508073ffffffffffffffffffffffffffffffffffffffff168473ffffffffffffffffffffffffffffffffffffffff161480611aaf5750611aae8185611733565b5b80611aed57508373ffffffffffffffffffffffffffffffffffffffff16611ad584610806565b73ffffffffffffffffffffffffffffffffffffffff16145b91505092915050565b8273ffffffffffffffffffffffffffffffffffffffff16611b1682610cbd565b73ffffffffffffffffffffffffffffffffffffffff1614611b6c576040517f08c379a0000000000000000000000000000000000000000000000000000000008152600401611b6390613a8d565b60405180910390fd5b600073ffffffffffffffffffffffffffffffffffffffff168273ffffffffffffffffffffffffffffffffffffffff1603611bdb576040517f08c379a0000000000000000000000000000000000000000000000000000000008152600401611bd290613b1f565b60405180910390fd5b611be883838360016122f9565b8273ffffffffffffffffffffffffffffffffffffffff16611c0882610cbd565b73ffffffffffffffffffffffffffffffffffffffff1614611c5e576040517f08c379a0000000000000000000000000000000000000000000000000000000008152600401611c5590613a8d565b60405180910390fd5b6004600082815260200190815260200160002060006101000a81549073ffffffffffffffffffffffffffffffffffffffff02191690556001600360008573ffffffffffffffffffffffffffffffffffffffff1673ffffffffffffffffffffffffffffffffffffffff168152602001908152602001600020600082825403925050819055506001600360008473ffffffffffffffffffffffffffffffffffffffff1673ffffffffffffffffffffffffffffffffffffffff16815260200190815260200160002060008282540192505081905550816002600083815260200190815260200160002060006101000a81548173ffffffffffffffffffffffffffffffffffffffff021916908373ffffffffffffffffffffffffffffffffffffffff160217905550808273ffffffffffffffffffffffffffffffffffffffff168473ffffffffffffffffffffffffffffffffffffffff167fddf252ad1be2c89b69c2b068fc378daa952ba7f163c4a11628f55a4df523b3ef60405160405180910390a4611dea83838360016122ff565b505050565b600260075403611e34576040517f08c379a0000000000000000000000000000000000000000000000000000000008152600401611e2b90613b8b565b60405180910390fd5b6002600781905550565b600081600001549050919050565b6001816000016000828254019250508190555050565b611e7c828260405180602001604052806000815250612305565b5050565b6001600781905550565b60006002600083815260200190815260200160002060009054906101000a900473ffffffffffffffffffffffffffffffffffffffff169050919050565b611ecf6119a0565b73ffffffffffffffffffffffffffffffffffffffff16611eed611020565b73ffffffffffffffffffffffffffffffffffffffff1614611f43576040517f08c379a0000000000000000000000000000000000000000000000000000000008152600401611f3a90613bf7565b60405180910390fd5b565b60008073ffffffffffffffffffffffffffffffffffffffff16611f6783611e8a565b73ffffffffffffffffffffffffffffffffffffffff1614159050919050565b6000600660009054906101000a900473ffffffffffffffffffffffffffffffffffffffff16905081600660006101000a81548173ffffffffffffffffffffffffffffffffffffffff021916908373ffffffffffffffffffffffffffffffffffffffff1602179055508173ffffffffffffffffffffffffffffffffffffffff168173ffffffffffffffffffffffffffffffffffffffff167f8be0079c531659141344cd1fd0a4f28419497f9722a3daafe3b4186f6b6457e060405160405180910390a35050565b8173ffffffffffffffffffffffffffffffffffffffff168373ffffffffffffffffffffffffffffffffffffffff16036120ba576040517f08c379a00000000000000000000000000000000000000000000000000000000081526004016120b190613c63565b60405180910390fd5b80600560008573ffffffffffffffffffffffffffffffffffffffff1673ffffffffffffffffffffffffffffffffffffffff16815260200190815260200160002060008473ffffffffffffffffffffffffffffffffffffffff1673ffffffffffffffffffffffffffffffffffffffff16815260200190815260200160002060006101000a81548160ff0219169083151502179055508173ffffffffffffffffffffffffffffffffffffffff168373ffffffffffffffffffffffffffffffffffffffff167f17307eab39ab6107e8899845ad3d59bd9653f200f220920489ca2b5937696c31836040516121ab9190612983565b60405180910390a3505050565b6121c3848484611af6565b6121cf84848484612360565b61220e576040517f08c379a000000000000000000000000000000000000000000000000000000000815260040161220590613cf5565b60405180910390fd5b50505050565b606060405180602001604052806000815250905090565b60606000600161223a846124e7565b01905060008167ffffffffffffffff81111561225957612258612dc4565b5b6040519080825280601f01601f19166020018201604052801561228b5781602001600182028036833780820191505090505b509050600082602001820190505b6001156122ee578080600190039150507f3031323334353637383961626364656600000000000000000000000000000000600a86061a8153600a85816122e2576122e16133a1565b5b04945060008503612299575b819350505050919050565b50505050565b50505050565b61230f838361263a565b61231c6000848484612360565b61235b576040517f08c379a000000000000000000000000000000000000000000000000000000000815260040161235290613cf5565b60405180910390fd5b505050565b60006123818473ffffffffffffffffffffffffffffffffffffffff16612857565b156124da578373ffffffffffffffffffffffffffffffffffffffff1663150b7a026123aa6119a0565b8786866040518563ffffffff1660e01b81526004016123cc9493929190613d6a565b6020604051808303816000875af192505050801561240857506040513d601f19601f820116820180604052508101906124059190613dcb565b60015b61248a573d8060008114612438576040519150601f19603f3d011682016040523d82523d6000602084013e61243d565b606091505b506000815103612482576040517f08c379a000000000000000000000000000000000000000000000000000000000815260040161247990613cf5565b60405180910390fd5b805181602001fd5b63150b7a0260e01b7bffffffffffffffffffffffffffffffffffffffffffffffffffffffff1916817bffffffffffffffffffffffffffffffffffffffffffffffffffffffff1916149150506124df565b600190505b949350505050565b600080600090507a184f03e93ff9f4daa797ed6e38ed64bf6a1f0100000000000000008310612545577a184f03e93ff9f4daa797ed6e38ed64bf6a1f010000000000000000838161253b5761253a6133a1565b5b0492506040810190505b6d04ee2d6d415b85acef81000000008310612582576d04ee2d6d415b85acef81000000008381612578576125776133a1565b5b0492506020810190505b662386f26fc1000083106125b157662386f26fc1000083816125a7576125a66133a1565b5b0492506010810190505b6305f5e10083106125da576305f5e10083816125d0576125cf6133a1565b5b0492506008810190505b61271083106125ff5761271083816125f5576125f46133a1565b5b0492506004810190505b606483106126225760648381612618576126176133a1565b5b0492506002810190505b600a8310612631576001810190505b80915050919050565b600073ffffffffffffffffffffffffffffffffffffffff168273ffffffffffffffffffffffffffffffffffffffff16036126a9576040517f08c379a00000000000000000000000000000000000000000000000000000000081526004016126a090613e44565b60405180910390fd5b6126b281611f45565b156126f2576040517f08c379a00000000000000000000000000000000000000000000000000000000081526004016126e990613eb0565b60405180910390fd5b6127006000838360016122f9565b61270981611f45565b15612749576040517f08c379a000000000000000000000000000000000000000000000000000000000815260040161274090613eb0565b60405180910390fd5b6001600360008473ffffffffffffffffffffffffffffffffffffffff1673ffffffffffffffffffffffffffffffffffffffff16815260200190815260200160002060008282540192505081905550816002600083815260200190815260200160002060006101000a81548173ffffffffffffffffffffffffffffffffffffffff021916908373ffffffffffffffffffffffffffffffffffffffff160217905550808273ffffffffffffffffffffffffffffffffffffffff16600073ffffffffffffffffffffffffffffffffffffffff167fddf252ad1be2c89b69c2b068fc378daa952ba7f163c4a11628f55a4df523b3ef60405160405180910390a46128536000838360016122ff565b5050565b6000808273ffffffffffffffffffffffffffffffffffffffff163b119050919050565b6040518060e0016040528060008152602001600073ffffffffffffffffffffffffffffffffffffffff168152602001600081526020016000815260200160001515815260200160008152602001600081525090565b6000604051905090565b600080fd5b600080fd5b60007fffffffff0000000000000000000000000000000000000000000000000000000082169050919050565b612918816128e3565b811461292357600080fd5b50565b6000813590506129358161290f565b92915050565b600060208284031215612951576129506128d9565b5b600061295f84828501612926565b91505092915050565b60008115159050919050565b61297d81612968565b82525050565b60006020820190506129986000830184612974565b92915050565b600081519050919050565b600082825260208201905092915050565b60005b838110156129d85780820151818401526020810190506129bd565b60008484015250505050565b6000601f19601f8301169050919050565b6000612a008261299e565b612a0a81856129a9565b9350612a1a8185602086016129ba565b612a23816129e4565b840191505092915050565b60006020820190508181036000830152612a4881846129f5565b905092915050565b6000819050919050565b612a6381612a50565b8114612a6e57600080fd5b50565b600081359050612a8081612a5a565b92915050565b600060208284031215612a9c57612a9b6128d9565b5b6000612aaa84828501612a71565b91505092915050565b600073ffffffffffffffffffffffffffffffffffffffff82169050919050565b6000612ade82612ab3565b9050919050565b612aee81612ad3565b82525050565b6000602082019050612b096000830184612ae5565b92915050565b612b1881612ad3565b8114612b2357600080fd5b50565b600081359050612b3581612b0f565b92915050565b60008060408385031215612b5257612b516128d9565b5b6000612b6085828601612b26565b9250506020612b7185828601612a71565b9150509250929050565b612b8481612a50565b82525050565b6000602082019050612b9f6000830184612b7b565b92915050565b600080600060608486031215612bbe57612bbd6128d9565b5b6000612bcc86828701612b26565b9350506020612bdd86828701612b26565b9250506040612bee86828701612a71565b9150509250925092565b600080600060608486031215612c1157612c106128d9565b5b6000612c1f86828701612a71565b9350506020612c3086828701612a71565b9250506040612c4186828701612a71565b9150509250925092565b600060208284031215612c6157612c606128d9565b5b6000612c6f84828501612b26565b91505092915050565b612c8181612968565b8114612c8c57600080fd5b50565b600081359050612c9e81612c78565b92915050565b60008060408385031215612cbb57612cba6128d9565b5b6000612cc985828601612b26565b9250506020612cda85828601612c8f565b9150509250929050565b612ced81612a50565b82525050565b612cfc81612ad3565b82525050565b612d0b81612968565b82525050565b60e082016000820151612d276000850182612ce4565b506020820151612d3a6020850182612cf3565b506040820151612d4d6040850182612ce4565b506060820151612d606060850182612ce4565b506080820151612d736080850182612d02565b5060a0820151612d8660a0850182612ce4565b5060c0820151612d9960c0850182612ce4565b50505050565b600060e082019050612db46000830184612d11565b92915050565b600080fd5b600080fd5b7f4e487b7100000000000000000000000000000000000000000000000000000000600052604160045260246000fd5b612dfc826129e4565b810181811067ffffffffffffffff82111715612e1b57612e1a612dc4565b5b80604052505050565b6000612e2e6128cf565b9050612e3a8282612df3565b919050565b600067ffffffffffffffff821115612e5a57612e59612dc4565b5b612e63826129e4565b9050602081019050919050565b82818337600083830152505050565b6000612e92612e8d84612e3f565b612e24565b905082815260208101848484011115612eae57612ead612dbf565b5b612eb9848285612e70565b509392505050565b600082601f830112612ed657612ed5612dba565b5b8135612ee6848260208601612e7f565b91505092915050565b60008060008060808587031215612f0957612f086128d9565b5b6000612f1787828801612b26565b9450506020612f2887828801612b26565b9350506040612f3987828801612a71565b925050606085013567ffffffffffffffff811115612f5a57612f596128de565b5b612f6687828801612ec1565b91505092959194509250565b600060e082019050612f87600083018a612b7b565b612f946020830189612ae5565b612fa16040830188612b7b565b612fae6060830187612b7b565b612fbb6080830186612974565b612fc860a0830185612b7b565b612fd560c0830184612b7b565b98975050505050505050565b60008060408385031215612ff857612ff76128d9565b5b600061300685828601612b26565b925050602061301785828601612b26565b9150509250929050565b7f4e487b7100000000000000000000000000000000000000000000000000000000600052602260045260246000fd5b6000600282049050600182168061306857607f821691505b60208210810361307b5761307a613021565b5b50919050565b7f4552433732313a20617070726f76616c20746f2063757272656e74206f776e6560008201527f7200000000000000000000000000000000000000000000000000000000000000602082015250565b60006130dd6021836129a9565b91506130e882613081565b604082019050919050565b6000602082019050818103600083015261310c816130d0565b9050919050565b7f4552433732313a20617070726f76652063616c6c6572206973206e6f7420746f60008201527f6b656e206f776e6572206f7220617070726f76656420666f7220616c6c000000602082015250565b600061316f603d836129a9565b915061317a82613113565b604082019050919050565b6000602082019050818103600083015261319e81613162565b9050919050565b7f4552433732313a2063616c6c6572206973206e6f7420746f6b656e206f776e6560008201527f72206f7220617070726f76656400000000000000000000000000000000000000602082015250565b6000613201602d836129a9565b915061320c826131a5565b604082019050919050565b60006020820190508181036000830152613230816131f4565b9050919050565b7f4c616e64207072696365206d7573742062652067726561746572207468616e2060008201527f3000000000000000000000000000000000000000000000000000000000000000602082015250565b60006132936021836129a9565b915061329e82613237565b604082019050919050565b600060208201905081810360008301526132c281613286565b9050919050565b7f496e76616c6964206c6f616e20706572696f6400000000000000000000000000600082015250565b60006132ff6013836129a9565b915061330a826132c9565b602082019050919050565b6000602082019050818103600083015261332e816132f2565b9050919050565b7f496e76616c696420696e74657265737420726174650000000000000000000000600082015250565b600061336b6015836129a9565b915061337682613335565b602082019050919050565b6000602082019050818103600083015261339a8161335e565b9050919050565b7f4e487b7100000000000000000000000000000000000000000000000000000000600052601260045260246000fd5b7f4e487b7100000000000000000000000000000000000000000000000000000000600052601160045260246000fd5b600061340a82612a50565b915061341583612a50565b925082613425576134246133a1565b5b828204905092915050565b7f436f6c6c61746572616c206d757374206265206174206c65617374203130252060008201527f6f66206c616e6420707269636500000000000000000000000000000000000000602082015250565b600061348c602d836129a9565b915061349782613430565b604082019050919050565b600060208201905081810360008301526134bb8161347f565b9050919050565b60006060820190506134d76000830186612b7b565b6134e46020830185612b7b565b6134f16040830184612b7b565b949350505050565b7f4552433732313a20696e76616c696420746f6b656e2049440000000000000000600082015250565b600061352f6018836129a9565b915061353a826134f9565b602082019050919050565b6000602082019050818103600083015261355e81613522565b9050919050565b7f4c69656e20646f6573206e6f7420657869737400000000000000000000000000600082015250565b600061359b6013836129a9565b91506135a682613565565b602082019050919050565b600060208201905081810360008301526135ca8161358e565b9050919050565b7f4c69656e206973206e6f74206163746976650000000000000000000000000000600082015250565b60006136076012836129a9565b9150613612826135d1565b602082019050919050565b60006020820190508181036000830152613636816135fa565b9050919050565b600061364882612a50565b915061365383612a50565b925082820190508082111561366b5761366a6133d0565b5b92915050565b7f4c6f616e20706572696f64206e6f742065787069726564000000000000000000600082015250565b60006136a76017836129a9565b91506136b282613671565b602082019050919050565b600060208201905081810360008301526136d68161369a565b9050919050565b7f4552433732313a2061646472657373207a65726f206973206e6f74206120766160008201527f6c6964206f776e65720000000000000000000000000000000000000000000000602082015250565b60006137396029836129a9565b9150613744826136dd565b604082019050919050565b600060208201905081810360008301526137688161372c565b9050919050565b7f4f6e6c7920626f72726f7765722063616e20726570617920746865206c6f616e600082015250565b60006137a56020836129a9565b91506137b08261376f565b602082019050919050565b600060208201905081810360008301526137d481613798565b9050919050565b7f496e73756666696369656e74207061796d656e74000000000000000000000000600082015250565b60006138116014836129a9565b915061381c826137db565b602082019050919050565b6000602082019050818103600083015261384081613804565b9050919050565b600061385282612a50565b915061385d83612a50565b9250828203905081811115613875576138746133d0565b5b92915050565b600061388682612a50565b915061389183612a50565b925082820261389f81612a50565b915082820484148315176138b6576138b56133d0565b5b5092915050565b600081905092915050565b60006138d38261299e565b6138dd81856138bd565b93506138ed8185602086016129ba565b80840191505092915050565b600061390582856138c8565b915061391182846138c8565b91508190509392505050565b7f4f776e61626c653a206e6577206f776e657220697320746865207a65726f206160008201527f6464726573730000000000000000000000000000000000000000000000000000602082015250565b60006139796026836129a9565b91506139848261391d565b604082019050919050565b600060208201905081810360008301526139a88161396c565b9050919050565b7f4e6f2066756e647320746f207769746864726177000000000000000000000000600082015250565b60006139e56014836129a9565b91506139f0826139af565b602082019050919050565b60006020820190508181036000830152613a14816139d8565b9050919050565b7f4552433732313a207472616e736665722066726f6d20696e636f72726563742060008201527f6f776e6572000000000000000000000000000000000000000000000000000000602082015250565b6000613a776025836129a9565b9150613a8282613a1b565b604082019050919050565b60006020820190508181036000830152613aa681613a6a565b9050919050565b7f4552433732313a207472616e7366657220746f20746865207a65726f2061646460008201527f7265737300000000000000000000000000000000000000000000000000000000602082015250565b6000613b096024836129a9565b9150613b1482613aad565b604082019050919050565b60006020820190508181036000830152613b3881613afc565b9050919050565b7f5265656e7472616e637947756172643a207265656e7472616e742063616c6c00600082015250565b6000613b75601f836129a9565b9150613b8082613b3f565b602082019050919050565b60006020820190508181036000830152613ba481613b68565b9050919050565b7f4f776e61626c653a2063616c6c6572206973206e6f7420746865206f776e6572600082015250565b6000613be16020836129a9565b9150613bec82613bab565b602082019050919050565b60006020820190508181036000830152613c1081613bd4565b9050919050565b7f4552433732313a20617070726f766520746f2063616c6c657200000000000000600082015250565b6000613c4d6019836129a9565b9150613c5882613c17565b602082019050919050565b60006020820190508181036000830152613c7c81613c40565b9050919050565b7f4552433732313a207472616e7366657220746f206e6f6e20455243373231526560008201527f63656976657220696d706c656d656e7465720000000000000000000000000000602082015250565b6000613cdf6032836129a9565b9150613cea82613c83565b604082019050919050565b60006020820190508181036000830152613d0e81613cd2565b9050919050565b600081519050919050565b600082825260208201905092915050565b6000613d3c82613d15565b613d468185613d20565b9350613d568185602086016129ba565b613d5f816129e4565b840191505092915050565b6000608082019050613d7f6000830187612ae5565b613d8c6020830186612ae5565b613d996040830185612b7b565b8181036060830152613dab8184613d31565b905095945050505050565b600081519050613dc58161290f565b92915050565b600060208284031215613de157613de06128d9565b5b6000613def84828501613db6565b91505092915050565b7f4552433732313a206d696e7420746f20746865207a65726f2061646472657373600082015250565b6000613e2e6020836129a9565b9150613e3982613df8565b602082019050919050565b60006020820190508181036000830152613e5d81613e21565b9050919050565b7f4552433732313a20746f6b656e20616c7265616479206d696e74656400000000600082015250565b6000613e9a601c836129a9565b9150613ea582613e64565b602082019050919050565b60006020820190508181036000830152613ec981613e8d565b905091905056fea2646970667358221220fddb880b05f003c9462812b2aea76fbbdfd270d6d6d9a07d0ee8fc9df4116c7164736f6c63430008180033",
  "linkReferences": {},
  "deployedLinkReferences": {}
}